{
  "contractName": "Production",
  "abi": [
    {
      "constant": true,
      "inputs": [
        {
          "name": "",
          "type": "address"
        }
      ],
      "name": "ownerToProducer",
      "outputs": [
        {
          "name": "id",
          "type": "uint256"
        },
        {
          "name": "name",
          "type": "string"
        }
      ],
      "payable": false,
      "stateMutability": "view",
      "type": "function"
    }
  ],
  "bytecode": "0x60806040527306f7469db8ebd77ab4dfbdbb0836f84701501a97600260006101000a81548173ffffffffffffffffffffffffffffffffffffffff021916908373ffffffffffffffffffffffffffffffffffffffff16021790555034801561006557600080fd5b506101f1806100756000396000f300608060405260043610610041576000357c0100000000000000000000000000000000000000000000000000000000900463ffffffff168063bd140aaf14610046575b600080fd5b34801561005257600080fd5b50610087600480360381019080803573ffffffffffffffffffffffffffffffffffffffff169060200190929190505050610109565b6040518083815260200180602001828103825283818151815260200191508051906020019080838360005b838110156100cd5780820151818401526020810190506100b2565b50505050905090810190601f1680156100fa5780820380516001836020036101000a031916815260200191505b50935050505060405180910390f35b6000602052806000526040600020600091509050806000015490806001018054600181600116156101000203166002900480601f0160208091040260200160405190810160405280929190818152602001828054600181600116156101000203166002900480156101bb5780601f10610190576101008083540402835291602001916101bb565b820191906000526020600020905b81548152906001019060200180831161019e57829003601f168201915b50505050509050825600a165627a7a72305820942bd55f230ff46095c424e63a0d7bddc683d4b0fa24d8c3cf1d6325794c22900029",
  "source": "pragma solidity ^0.4.2;\n\ncontract Production{\n    struct producer{\n        uint id;\n        string name;\n    }\n    //an address can have only one producer associated with it\n    mapping (address => producer) public ownerToProducer; // mapping to corelate a owner to his production\n    uint producerCount;\n    address tempAddress = 0x06F7469DB8eBd77AB4DfBdBb0836F84701501A97; //This is a temporary address holder, as address assigned by ganache constantly changes\n    function addProducer(string _name) private{ //procedure to add new producer\n        producerCount++; //No of producers incremented\n        ownerToProducer[tempAddress] = producer(producerCount,_name); // Producer and the owner is associated\n\n    }\n\n}\n",
  "sourcePath": "/Users/krishnanunni/project/tcs/contracts/Production.sol",
  "compiler": {
    "name": "solc",
    "version": "0.4.24+commit.e67f0147.Emscripten.clang"
  },
  "schemaVersion": "2.0.1",
  "updatedAt": "2018-07-28T20:07:50.714Z"
}