{
  "contractName": "Production",
  "abi": [
    {
      "constant": true,
      "inputs": [],
      "name": "orderCount",
      "outputs": [
        {
          "name": "",
          "type": "uint256"
        }
      ],
      "payable": false,
      "stateMutability": "view",
      "type": "function"
    },
    {
      "constant": true,
      "inputs": [
        {
          "name": "",
          "type": "address"
        }
      ],
      "name": "sellerToOrder",
      "outputs": [
        {
          "name": "id",
          "type": "uint256"
        },
        {
          "name": "itemId",
          "type": "uint256"
        },
        {
          "name": "quantity",
          "type": "uint256"
        },
        {
          "name": "srcId",
          "type": "uint256"
        },
        {
          "name": "destId",
          "type": "uint256"
        }
      ],
      "payable": false,
      "stateMutability": "view",
      "type": "function"
    },
    {
      "constant": true,
      "inputs": [],
      "name": "locCount",
      "outputs": [
        {
          "name": "",
          "type": "uint256"
        }
      ],
      "payable": false,
      "stateMutability": "view",
      "type": "function"
    },
    {
      "constant": true,
      "inputs": [
        {
          "name": "",
          "type": "uint256"
        }
      ],
      "name": "nextLocAddress",
      "outputs": [
        {
          "name": "",
          "type": "address"
        }
      ],
      "payable": false,
      "stateMutability": "view",
      "type": "function"
    },
    {
      "constant": true,
      "inputs": [
        {
          "name": "",
          "type": "address"
        }
      ],
      "name": "producerToOrder",
      "outputs": [
        {
          "name": "id",
          "type": "uint256"
        },
        {
          "name": "itemId",
          "type": "uint256"
        },
        {
          "name": "quantity",
          "type": "uint256"
        },
        {
          "name": "srcId",
          "type": "uint256"
        },
        {
          "name": "destId",
          "type": "uint256"
        }
      ],
      "payable": false,
      "stateMutability": "view",
      "type": "function"
    },
    {
      "constant": true,
      "inputs": [
        {
          "name": "",
          "type": "uint256"
        }
      ],
      "name": "idToPath",
      "outputs": [
        {
          "name": "id",
          "type": "uint256"
        },
        {
          "name": "src",
          "type": "uint256"
        },
        {
          "name": "dest",
          "type": "uint256"
        }
      ],
      "payable": false,
      "stateMutability": "view",
      "type": "function"
    },
    {
      "constant": true,
      "inputs": [
        {
          "name": "",
          "type": "address"
        }
      ],
      "name": "ownerToIns",
      "outputs": [
        {
          "name": "itype",
          "type": "uint256"
        },
        {
          "name": "id",
          "type": "uint256"
        },
        {
          "name": "name",
          "type": "string"
        },
        {
          "name": "accountOwner",
          "type": "address"
        }
      ],
      "payable": false,
      "stateMutability": "view",
      "type": "function"
    },
    {
      "constant": true,
      "inputs": [
        {
          "name": "",
          "type": "uint256"
        }
      ],
      "name": "idToIns",
      "outputs": [
        {
          "name": "itype",
          "type": "uint256"
        },
        {
          "name": "id",
          "type": "uint256"
        },
        {
          "name": "name",
          "type": "string"
        },
        {
          "name": "accountOwner",
          "type": "address"
        }
      ],
      "payable": false,
      "stateMutability": "view",
      "type": "function"
    },
    {
      "constant": true,
      "inputs": [
        {
          "name": "",
          "type": "address"
        }
      ],
      "name": "insToItems",
      "outputs": [
        {
          "name": "id",
          "type": "uint256"
        },
        {
          "name": "name",
          "type": "string"
        },
        {
          "name": "price",
          "type": "uint256"
        }
      ],
      "payable": false,
      "stateMutability": "view",
      "type": "function"
    },
    {
      "constant": true,
      "inputs": [],
      "name": "itemCount",
      "outputs": [
        {
          "name": "",
          "type": "uint256"
        }
      ],
      "payable": false,
      "stateMutability": "view",
      "type": "function"
    },
    {
      "constant": true,
      "inputs": [],
      "name": "pathCount",
      "outputs": [
        {
          "name": "",
          "type": "uint256"
        }
      ],
      "payable": false,
      "stateMutability": "view",
      "type": "function"
    },
    {
      "constant": true,
      "inputs": [
        {
          "name": "",
          "type": "uint256"
        }
      ],
      "name": "idToOrder",
      "outputs": [
        {
          "name": "id",
          "type": "uint256"
        },
        {
          "name": "itemId",
          "type": "uint256"
        },
        {
          "name": "quantity",
          "type": "uint256"
        },
        {
          "name": "srcId",
          "type": "uint256"
        },
        {
          "name": "destId",
          "type": "uint256"
        }
      ],
      "payable": false,
      "stateMutability": "view",
      "type": "function"
    },
    {
      "constant": true,
      "inputs": [],
      "name": "insCount",
      "outputs": [
        {
          "name": "",
          "type": "uint256"
        }
      ],
      "payable": false,
      "stateMutability": "view",
      "type": "function"
    },
    {
      "constant": true,
      "inputs": [
        {
          "name": "",
          "type": "uint256"
        }
      ],
      "name": "idToItem",
      "outputs": [
        {
          "name": "id",
          "type": "uint256"
        },
        {
          "name": "name",
          "type": "string"
        },
        {
          "name": "price",
          "type": "uint256"
        }
      ],
      "payable": false,
      "stateMutability": "view",
      "type": "function"
    },
    {
      "constant": true,
      "inputs": [
        {
          "name": "",
          "type": "uint256"
        }
      ],
      "name": "idToLoc",
      "outputs": [
        {
          "name": "id",
          "type": "uint256"
        },
        {
          "name": "locName",
          "type": "string"
        },
        {
          "name": "locOwner",
          "type": "address"
        }
      ],
      "payable": false,
      "stateMutability": "view",
      "type": "function"
    },
    {
      "constant": true,
      "inputs": [
        {
          "name": "",
          "type": "uint256"
        }
      ],
      "name": "currentlyWith",
      "outputs": [
        {
          "name": "",
          "type": "address"
        }
      ],
      "payable": false,
      "stateMutability": "view",
      "type": "function"
    },
    {
      "inputs": [],
      "payable": false,
      "stateMutability": "nonpayable",
      "type": "constructor"
    }
  ],
  "bytecode": "0x60806040527306f7469db8ebd77ab4dfbdbb0836f84701501a97601260006101000a81548173ffffffffffffffffffffffffffffffffffffffff021916908373ffffffffffffffffffffffffffffffffffffffff16021790555073fa2e3cbbdb6123b4cecdb113a8c11d9063292869601360006101000a81548173ffffffffffffffffffffffffffffffffffffffff021916908373ffffffffffffffffffffffffffffffffffffffff16021790555073255b70c41cf3b8885bcfd0969a46526dcf605f17601460006101000a81548173ffffffffffffffffffffffffffffffffffffffff021916908373ffffffffffffffffffffffffffffffffffffffff160217905550739fdebf94526158d8a5fc323e1713f190c4b1e7ba601560006101000a81548173ffffffffffffffffffffffffffffffffffffffff021916908373ffffffffffffffffffffffffffffffffffffffff1602179055507313182e9a4c93b63b1acf7a4c71a38ca6a1e6ba6c601660006101000a81548173ffffffffffffffffffffffffffffffffffffffff021916908373ffffffffffffffffffffffffffffffffffffffff160217905550348015620001ba57600080fd5b506200022f60006040805190810160405280600781526020017f6672657368667200000000000000000000000000000000000000000000000000815250601260009054906101000a900473ffffffffffffffffffffffffffffffffffffffff1662000783640100000000026401000000009004565b620002a360016040805190810160405280600681526020017f537567756e610000000000000000000000000000000000000000000000000000815250601660009054906101000a900473ffffffffffffffffffffffffffffffffffffffff1662000783640100000000026401000000009004565b6200031760026040805190810160405280600a81526020017f77617265686f7573653100000000000000000000000000000000000000000000815250601360009054906101000a900473ffffffffffffffffffffffffffffffffffffffff1662000783640100000000026401000000009004565b6200038b60026040805190810160405280600a81526020017f77617265686f7573653200000000000000000000000000000000000000000000815250601460009054906101000a900473ffffffffffffffffffffffffffffffffffffffff1662000783640100000000026401000000009004565b620003ff60026040805190810160405280600a81526020017f77617265686f7573653300000000000000000000000000000000000000000000815250601560009054906101000a900473ffffffffffffffffffffffffffffffffffffffff1662000783640100000000026401000000009004565b620004736040805190810160405280600681526020017f636172726f7400000000000000000000000000000000000000000000000000008152506064601260009054906101000a900473ffffffffffffffffffffffffffffffffffffffff166200098c640100000000026401000000009004565b620004e56040805190810160405280600981526020017f74656c656e67616e610000000000000000000000000000000000000000000000815250601260009054906101000a900473ffffffffffffffffffffffffffffffffffffffff1662000aca640100000000026401000000009004565b620005576040805190810160405280600981526020017f6879646572616261640000000000000000000000000000000000000000000000815250601360009054906101000a900473ffffffffffffffffffffffffffffffffffffffff1662000aca640100000000026401000000009004565b620005c96040805190810160405280600981526020017f62616e67616c6f72650000000000000000000000000000000000000000000000815250601460009054906101000a900473ffffffffffffffffffffffffffffffffffffffff1662000aca640100000000026401000000009004565b6200063b6040805190810160405280600581526020017f6b6f636869000000000000000000000000000000000000000000000000000000815250601560009054906101000a900473ffffffffffffffffffffffffffffffffffffffff1662000aca640100000000026401000000009004565b620006ad6040805190810160405280600881526020017f616c6170757a6861000000000000000000000000000000000000000000000000815250601660009054906101000a900473ffffffffffffffffffffffffffffffffffffffff1662000aca640100000000026401000000009004565b620007396001600561014060405190810160405280600160ff168152602001600260ff168152602001600360ff168152602001600460ff168152602001600560ff168152602001600060ff168152602001600060ff168152602001600060ff168152602001600060ff168152602001600060ff1681525062000b9c640100000000026401000000009004565b6200077d6001606460016002601260009054906101000a900473ffffffffffffffffffffffffffffffffffffffff1662000c27640100000000026401000000009004565b62000fcc565b600d60008154809291906001019190505550608060405190810160405280848152602001600d5481526020018381526020018273ffffffffffffffffffffffffffffffffffffffff16815250600560008373ffffffffffffffffffffffffffffffffffffffff1673ffffffffffffffffffffffffffffffffffffffff168152602001908152602001600020600082015181600001556020820151816001015560408201518160020190805190602001906200084092919062000dbb565b5060608201518160030160006101000a81548173ffffffffffffffffffffffffffffffffffffffff021916908373ffffffffffffffffffffffffffffffffffffffff160217905550905050600560008273ffffffffffffffffffffffffffffffffffffffff1673ffffffffffffffffffffffffffffffffffffffff16815260200190815260200160002060016000600d5481526020019081526020016000206000820154816000015560018201548160010155600282018160020190805460018160011615610100020316600290046200091c92919062000e42565b506003820160009054906101000a900473ffffffffffffffffffffffffffffffffffffffff168160030160006101000a81548173ffffffffffffffffffffffffffffffffffffffff021916908373ffffffffffffffffffffffffffffffffffffffff160217905550905050505050565b600e60008154809291906001019190505550606060405190810160405280600e54815260200184815260200183815250600660008373ffffffffffffffffffffffffffffffffffffffff1673ffffffffffffffffffffffffffffffffffffffff16815260200190815260200160002060008201518160000155602082015181600101908051906020019062000a2392919062000dbb565b5060408201518160020155905050600660008273ffffffffffffffffffffffffffffffffffffffff1673ffffffffffffffffffffffffffffffffffffffff168152602001908152602001600020600080600e548152602001908152602001600020600082015481600001556001820181600101908054600181600116156101000203166002900462000ab792919062000e42565b5060028201548160020155905050505050565b60106000815480929190600101919050555060606040519081016040528060105481526020018381526020018273ffffffffffffffffffffffffffffffffffffffff1681525060036000601054815260200190815260200160002060008201518160000155602082015181600101908051906020019062000b4d92919062000dbb565b5060408201518160020160006101000a81548173ffffffffffffffffffffffffffffffffffffffff021916908373ffffffffffffffffffffffffffffffffffffffff1602179055509050505050565b60116000815480929190600101919050555060806040519081016040528060115481526020018481526020018381526020018281525060046000601154815260200190815260200160002060008201518160000155602082015181600101556040820151816002015560608201518160030190600a62000c1e92919062000ed0565b50905050505050565b600f6000815480929190600101919050555060a060405190810160405280600f54815260200186815260200185815260200184815260200183815250600760008373ffffffffffffffffffffffffffffffffffffffff1673ffffffffffffffffffffffffffffffffffffffff1681526020019081526020016000206000820151816000015560208201518160010155604082015181600201556060820151816003015560808201518160040155905050600760008273ffffffffffffffffffffffffffffffffffffffff1673ffffffffffffffffffffffffffffffffffffffff16815260200190815260200160002060026000600f54815260200190815260200160002060008201548160000155600182015481600101556002820154816002015560038201548160030155600482015481600401559050508060096000600f54815260200190815260200160002060006101000a81548173ffffffffffffffffffffffffffffffffffffffff021916908373ffffffffffffffffffffffffffffffffffffffff1602179055505050505050565b828054600181600116156101000203166002900490600052602060002090601f016020900481019282601f1062000dfe57805160ff191683800117855562000e2f565b8280016001018555821562000e2f579182015b8281111562000e2e57825182559160200191906001019062000e11565b5b50905062000e3e919062000f71565b5090565b828054600181600116156101000203166002900490600052602060002090601f016020900481019282601f1062000e7d578054855562000ebd565b8280016001018555821562000ebd57600052602060002091601f016020900482015b8281111562000ebc57825482559160010191906001019062000e9f565b5b50905062000ecc919062000f71565b5090565b82600a601f0160209004810192821562000f5e5791602002820160005b8382111562000f2d57835183826101000a81548160ff021916908360ff160217905550926020019260010160208160000104928301926001030262000eed565b801562000f5c5782816101000a81549060ff021916905560010160208160000104928301926001030262000f2d565b505b50905062000f6d919062000f99565b5090565b62000f9691905b8082111562000f9257600081600090555060010162000f78565b5090565b90565b62000fc991905b8082111562000fc557600081816101000a81549060ff02191690555060010162000fa0565b5090565b90565b610e228062000fdc6000396000f3006080604052600436106100e6576000357c0100000000000000000000000000000000000000000000000000000000900463ffffffff1680632453ffa8146100eb578063248c486c14610116578063330f2943146101895780633560fae9146101b45780635204789414610221578063540df5f81461029457806356ffbc20146102e35780635ae317db146103e057806364efa242146104c75780636bfb0d01146105915780638c821e90146105bc5780638f1ec88f146105e75780639e92e56414610644578063a36701a91461066f578063d81d9cdb14610723578063e0ec6a6214610803575b600080fd5b3480156100f757600080fd5b50610100610870565b6040518082815260200191505060405180910390f35b34801561012257600080fd5b50610157600480360381019080803573ffffffffffffffffffffffffffffffffffffffff169060200190929190505050610876565b604051808681526020018581526020018481526020018381526020018281526020019550505050505060405180910390f35b34801561019557600080fd5b5061019e6108ac565b6040518082815260200191505060405180910390f35b3480156101c057600080fd5b506101df600480360381019080803590602001909291905050506108b2565b604051808273ffffffffffffffffffffffffffffffffffffffff1673ffffffffffffffffffffffffffffffffffffffff16815260200191505060405180910390f35b34801561022d57600080fd5b50610262600480360381019080803573ffffffffffffffffffffffffffffffffffffffff1690602001909291905050506108e5565b604051808681526020018581526020018481526020018381526020018281526020019550505050505060405180910390f35b3480156102a057600080fd5b506102bf6004803603810190808035906020019092919050505061091b565b60405180848152602001838152602001828152602001935050505060405180910390f35b3480156102ef57600080fd5b50610324600480360381019080803573ffffffffffffffffffffffffffffffffffffffff169060200190929190505050610945565b60405180858152602001848152602001806020018373ffffffffffffffffffffffffffffffffffffffff1673ffffffffffffffffffffffffffffffffffffffff168152602001828103825284818151815260200191508051906020019080838360005b838110156103a2578082015181840152602081019050610387565b50505050905090810190601f1680156103cf5780820380516001836020036101000a031916815260200191505b509550505050505060405180910390f35b3480156103ec57600080fd5b5061040b60048036038101908080359060200190929190505050610a2d565b60405180858152602001848152602001806020018373ffffffffffffffffffffffffffffffffffffffff1673ffffffffffffffffffffffffffffffffffffffff168152602001828103825284818151815260200191508051906020019080838360005b8381101561048957808201518184015260208101905061046e565b50505050905090810190601f1680156104b65780820380516001836020036101000a031916815260200191505b509550505050505060405180910390f35b3480156104d357600080fd5b50610508600480360381019080803573ffffffffffffffffffffffffffffffffffffffff169060200190929190505050610b15565b6040518084815260200180602001838152602001828103825284818151815260200191508051906020019080838360005b83811015610554578082015181840152602081019050610539565b50505050905090810190601f1680156105815780820380516001836020036101000a031916815260200191505b5094505050505060405180910390f35b34801561059d57600080fd5b506105a6610bd7565b6040518082815260200191505060405180910390f35b3480156105c857600080fd5b506105d1610bdd565b6040518082815260200191505060405180910390f35b3480156105f357600080fd5b5061061260048036038101908080359060200190929190505050610be3565b604051808681526020018581526020018481526020018381526020018281526020019550505050505060405180910390f35b34801561065057600080fd5b50610659610c19565b6040518082815260200191505060405180910390f35b34801561067b57600080fd5b5061069a60048036038101908080359060200190929190505050610c1f565b6040518084815260200180602001838152602001828103825284818151815260200191508051906020019080838360005b838110156106e65780820151818401526020810190506106cb565b50505050905090810190601f1680156107135780820380516001836020036101000a031916815260200191505b5094505050505060405180910390f35b34801561072f57600080fd5b5061074e60048036038101908080359060200190929190505050610ce1565b60405180848152602001806020018373ffffffffffffffffffffffffffffffffffffffff1673ffffffffffffffffffffffffffffffffffffffff168152602001828103825284818151815260200191508051906020019080838360005b838110156107c65780820151818401526020810190506107ab565b50505050905090810190601f1680156107f35780820380516001836020036101000a031916815260200191505b5094505050505060405180910390f35b34801561080f57600080fd5b5061082e60048036038101908080359060200190929190505050610dc3565b604051808273ffffffffffffffffffffffffffffffffffffffff1673ffffffffffffffffffffffffffffffffffffffff16815260200191505060405180910390f35b600f5481565b60086020528060005260406000206000915090508060000154908060010154908060020154908060030154908060040154905085565b60105481565b600a6020528060005260406000206000915054906101000a900473ffffffffffffffffffffffffffffffffffffffff1681565b60076020528060005260406000206000915090508060000154908060010154908060020154908060030154908060040154905085565b60046020528060005260406000206000915090508060000154908060010154908060020154905083565b6005602052806000526040600020600091509050806000015490806001015490806002018054600181600116156101000203166002900480601f0160208091040260200160405190810160405280929190818152602001828054600181600116156101000203166002900480156109fd5780601f106109d2576101008083540402835291602001916109fd565b820191906000526020600020905b8154815290600101906020018083116109e057829003601f168201915b5050505050908060030160009054906101000a900473ffffffffffffffffffffffffffffffffffffffff16905084565b6001602052806000526040600020600091509050806000015490806001015490806002018054600181600116156101000203166002900480601f016020809104026020016040519081016040528092919081815260200182805460018160011615610100020316600290048015610ae55780601f10610aba57610100808354040283529160200191610ae5565b820191906000526020600020905b815481529060010190602001808311610ac857829003601f168201915b5050505050908060030160009054906101000a900473ffffffffffffffffffffffffffffffffffffffff16905084565b6006602052806000526040600020600091509050806000015490806001018054600181600116156101000203166002900480601f016020809104026020016040519081016040528092919081815260200182805460018160011615610100020316600290048015610bc75780601f10610b9c57610100808354040283529160200191610bc7565b820191906000526020600020905b815481529060010190602001808311610baa57829003601f168201915b5050505050908060020154905083565b600e5481565b60115481565b60026020528060005260406000206000915090508060000154908060010154908060020154908060030154908060040154905085565b600d5481565b6000602052806000526040600020600091509050806000015490806001018054600181600116156101000203166002900480601f016020809104026020016040519081016040528092919081815260200182805460018160011615610100020316600290048015610cd15780601f10610ca657610100808354040283529160200191610cd1565b820191906000526020600020905b815481529060010190602001808311610cb457829003601f168201915b5050505050908060020154905083565b6003602052806000526040600020600091509050806000015490806001018054600181600116156101000203166002900480601f016020809104026020016040519081016040528092919081815260200182805460018160011615610100020316600290048015610d935780601f10610d6857610100808354040283529160200191610d93565b820191906000526020600020905b815481529060010190602001808311610d7657829003601f168201915b5050505050908060020160009054906101000a900473ffffffffffffffffffffffffffffffffffffffff16905083565b60096020528060005260406000206000915054906101000a900473ffffffffffffffffffffffffffffffffffffffff16815600a165627a7a72305820db3065a69cbf0a669ff7820b21544a8564368c1785e5a513e5dedb27363a8f350029",
  "source": "pragma solidity ^0.4.2;\n//Find the value of nextLocAddress which is the function to be achieved tomorrow\ncontract Production{\n    struct institution{\n        uint itype; //There are two types of institution - Institution and seller; Producer - 0, seller -1\n        uint id;\n        string name;\n        address accountOwner;\n    }\n    struct item{\n        uint id;\n        string name;\n        uint price;\n    }\n    struct order{\n        uint id;\n        uint itemId;\n        uint quantity;\n        uint srcId;\n        uint destId;\n        //uint[] pathF;\n    }\n    struct loc{\n        uint id;\n        string locName;\n        address locOwner;\n    }\n\n    struct path{\n        uint id;\n        uint src;\n        uint dest;\n        uint8[10] pathId;\n    }\n\n    mapping (uint => item) public idToItem;\n    mapping (uint => institution) public idToIns;\n    mapping (uint => order) public idToOrder;\n    mapping (uint => loc) public idToLoc;\n    mapping (uint => path) public idToPath;\n    //an address can have only one Institution associated with it\n    // mapping to corelate a owner to his institution\n\n    mapping (address => institution) public ownerToIns;\n    mapping (address => item) public insToItems;\n    mapping (address => order) public producerToOrder;\n    mapping (address => order) public sellerToOrder;\n    //int to address corelation to perform tracking\n    mapping (uint => address) public currentlyWith;\n    mapping (uint => address) public nextLocAddress;\n    //We need mappings inorder to find the path from src to destId\n    mapping (uint => uint[]) srcToPaths;\n    mapping (uint => uint) pathLength;\n    //counters to store the equvalent id's\n    uint public insCount;\n    uint public itemCount;\n    uint public orderCount;\n    uint public locCount;\n    uint public pathCount;\n    //This is a temporary address holder, as address assigned by ganache constantly changes\n    address tempAddress1 = 0x06F7469DB8eBd77AB4DfBdBb0836F84701501A97;\n    address tempAddress2 = 0xFa2E3cbbdB6123b4CecdB113a8C11d9063292869;\n    address tempAddress3 = 0x255b70c41cf3b8885BCFD0969A46526dcF605F17;\n    address tempAddress4 = 0x9FDEbF94526158d8A5FC323E1713F190c4B1E7BA;\n    address tempAddress5 = 0x13182E9a4c93B63B1ACf7A4C71a38ca6a1e6ba6c;\n    //procedures to add new struct instance\n    function addInstitute(uint _typeId, string _name, address tempAddress) private{\n        insCount++;\n        ownerToIns[tempAddress] = institution(_typeId,insCount,_name,tempAddress);\n        idToIns[insCount] = ownerToIns[tempAddress];\n    }\n\n\n    function addItem(string _name,uint price,address tempAddress) private{\n        itemCount++;\n        insToItems[tempAddress] =item(itemCount,_name,price);\n        idToItem[itemCount] = insToItems[tempAddress];\n\n    }\n\n\n    function addOrder(uint _itemId,uint quantity,uint src,uint dest,address tempAddress) private{\n        orderCount++;\n        producerToOrder[tempAddress] = order(orderCount,_itemId,quantity,src,dest);\n        idToOrder[orderCount] = producerToOrder[tempAddress];\n        currentlyWith[orderCount] = tempAddress;\n\n    }\n\n\n    function addLoc(string _locName,address tempAddress) private{\n        locCount++;\n        idToLoc[locCount] =loc(locCount,_locName,tempAddress);\n\n    }\n\n\n    function addPath(uint _srcId,uint _destId,uint8[10] _path) private{\n        pathCount++;\n        idToPath[pathCount] = path(pathCount,_srcId,_destId,_path);\n    }\n\n\n\n    constructor(){//This contracts constructor function\n        addInstitute(0,\"freshfr\",tempAddress1);\n        addInstitute(1,\"Suguna\",tempAddress5);\n        addInstitute(2,\"warehouse1\",tempAddress2);\n        addInstitute(2,\"warehouse2\",tempAddress3);\n        addInstitute(2,\"warehouse3\",tempAddress4);\n        addItem(\"carrot\",100,tempAddress1);\n        addLoc(\"telengana\",tempAddress1);\n        addLoc(\"hyderabad\",tempAddress2);\n        addLoc(\"bangalore\",tempAddress3);\n        addLoc(\"kochi\",tempAddress4);\n        addLoc(\"alapuzha\",tempAddress5);\n        addPath(1,5,[1,2,3,4,5,0,0,0,0,0]);\n        addOrder(1,100,1,2,tempAddress1);\n\n    }\n\n\n}\n",
  "sourcePath": "/Users/krishnanunni/project/tcs/contracts/Production.sol",
  "compiler": {
    "name": "solc",
    "version": "0.4.24+commit.e67f0147.Emscripten.clang"
  },
  "schemaVersion": "2.0.1",
  "updatedAt": "2018-07-31T06:32:25.217Z"
}