{
  "contractName": "Production",
  "abi": [
    {
      "constant": true,
      "inputs": [],
      "name": "orderCount",
      "outputs": [
        {
          "name": "",
          "type": "uint256"
        }
      ],
      "payable": false,
      "stateMutability": "view",
      "type": "function"
    },
    {
      "constant": true,
      "inputs": [
        {
          "name": "",
          "type": "address"
        }
      ],
      "name": "sellerToOrder",
      "outputs": [
        {
          "name": "id",
          "type": "uint256"
        },
        {
          "name": "itemId",
          "type": "uint256"
        },
        {
          "name": "quantity",
          "type": "uint256"
        },
        {
          "name": "srcId",
          "type": "uint256"
        },
        {
          "name": "destId",
          "type": "uint256"
        }
      ],
      "payable": false,
      "stateMutability": "view",
      "type": "function"
    },
    {
      "constant": true,
      "inputs": [],
      "name": "locCount",
      "outputs": [
        {
          "name": "",
          "type": "uint256"
        }
      ],
      "payable": false,
      "stateMutability": "view",
      "type": "function"
    },
    {
      "constant": true,
      "inputs": [
        {
          "name": "",
          "type": "uint256"
        }
      ],
      "name": "currentlyWithId",
      "outputs": [
        {
          "name": "",
          "type": "uint256"
        }
      ],
      "payable": false,
      "stateMutability": "view",
      "type": "function"
    },
    {
      "constant": true,
      "inputs": [
        {
          "name": "",
          "type": "address"
        }
      ],
      "name": "producerToOrder",
      "outputs": [
        {
          "name": "id",
          "type": "uint256"
        },
        {
          "name": "itemId",
          "type": "uint256"
        },
        {
          "name": "quantity",
          "type": "uint256"
        },
        {
          "name": "srcId",
          "type": "uint256"
        },
        {
          "name": "destId",
          "type": "uint256"
        }
      ],
      "payable": false,
      "stateMutability": "view",
      "type": "function"
    },
    {
      "constant": true,
      "inputs": [
        {
          "name": "",
          "type": "uint256"
        }
      ],
      "name": "idToPath",
      "outputs": [
        {
          "name": "id",
          "type": "uint256"
        },
        {
          "name": "src",
          "type": "uint256"
        },
        {
          "name": "dest",
          "type": "uint256"
        }
      ],
      "payable": false,
      "stateMutability": "view",
      "type": "function"
    },
    {
      "constant": true,
      "inputs": [
        {
          "name": "",
          "type": "address"
        }
      ],
      "name": "ownerToIns",
      "outputs": [
        {
          "name": "itype",
          "type": "uint256"
        },
        {
          "name": "id",
          "type": "uint256"
        },
        {
          "name": "name",
          "type": "string"
        },
        {
          "name": "accountOwner",
          "type": "address"
        }
      ],
      "payable": false,
      "stateMutability": "view",
      "type": "function"
    },
    {
      "constant": true,
      "inputs": [
        {
          "name": "",
          "type": "uint256"
        }
      ],
      "name": "idToIns",
      "outputs": [
        {
          "name": "itype",
          "type": "uint256"
        },
        {
          "name": "id",
          "type": "uint256"
        },
        {
          "name": "name",
          "type": "string"
        },
        {
          "name": "accountOwner",
          "type": "address"
        }
      ],
      "payable": false,
      "stateMutability": "view",
      "type": "function"
    },
    {
      "constant": true,
      "inputs": [
        {
          "name": "",
          "type": "address"
        }
      ],
      "name": "insToItems",
      "outputs": [
        {
          "name": "id",
          "type": "uint256"
        },
        {
          "name": "name",
          "type": "string"
        },
        {
          "name": "price",
          "type": "uint256"
        },
        {
          "name": "min",
          "type": "uint256"
        },
        {
          "name": "max",
          "type": "uint256"
        }
      ],
      "payable": false,
      "stateMutability": "view",
      "type": "function"
    },
    {
      "constant": true,
      "inputs": [],
      "name": "itemCount",
      "outputs": [
        {
          "name": "",
          "type": "uint256"
        }
      ],
      "payable": false,
      "stateMutability": "view",
      "type": "function"
    },
    {
      "constant": true,
      "inputs": [
        {
          "name": "",
          "type": "uint256"
        }
      ],
      "name": "nextLocId",
      "outputs": [
        {
          "name": "",
          "type": "uint256"
        }
      ],
      "payable": false,
      "stateMutability": "view",
      "type": "function"
    },
    {
      "constant": true,
      "inputs": [],
      "name": "pathCount",
      "outputs": [
        {
          "name": "",
          "type": "uint256"
        }
      ],
      "payable": false,
      "stateMutability": "view",
      "type": "function"
    },
    {
      "constant": true,
      "inputs": [
        {
          "name": "",
          "type": "uint256"
        }
      ],
      "name": "idToOrder",
      "outputs": [
        {
          "name": "id",
          "type": "uint256"
        },
        {
          "name": "itemId",
          "type": "uint256"
        },
        {
          "name": "quantity",
          "type": "uint256"
        },
        {
          "name": "srcId",
          "type": "uint256"
        },
        {
          "name": "destId",
          "type": "uint256"
        }
      ],
      "payable": false,
      "stateMutability": "view",
      "type": "function"
    },
    {
      "constant": true,
      "inputs": [
        {
          "name": "",
          "type": "uint256"
        }
      ],
      "name": "nextId",
      "outputs": [
        {
          "name": "",
          "type": "uint256"
        }
      ],
      "payable": false,
      "stateMutability": "view",
      "type": "function"
    },
    {
      "constant": true,
      "inputs": [],
      "name": "insCount",
      "outputs": [
        {
          "name": "",
          "type": "uint256"
        }
      ],
      "payable": false,
      "stateMutability": "view",
      "type": "function"
    },
    {
      "constant": true,
      "inputs": [
        {
          "name": "",
          "type": "uint256"
        }
      ],
      "name": "idToItem",
      "outputs": [
        {
          "name": "id",
          "type": "uint256"
        },
        {
          "name": "name",
          "type": "string"
        },
        {
          "name": "price",
          "type": "uint256"
        },
        {
          "name": "min",
          "type": "uint256"
        },
        {
          "name": "max",
          "type": "uint256"
        }
      ],
      "payable": false,
      "stateMutability": "view",
      "type": "function"
    },
    {
      "constant": true,
      "inputs": [
        {
          "name": "",
          "type": "address"
        }
      ],
      "name": "arrivedHere",
      "outputs": [
        {
          "name": "",
          "type": "uint256"
        }
      ],
      "payable": false,
      "stateMutability": "view",
      "type": "function"
    },
    {
      "constant": true,
      "inputs": [
        {
          "name": "",
          "type": "uint256"
        }
      ],
      "name": "idToLoc",
      "outputs": [
        {
          "name": "id",
          "type": "uint256"
        },
        {
          "name": "locName",
          "type": "string"
        },
        {
          "name": "locOwner",
          "type": "address"
        }
      ],
      "payable": false,
      "stateMutability": "view",
      "type": "function"
    },
    {
      "inputs": [],
      "payable": false,
      "stateMutability": "nonpayable",
      "type": "constructor"
    },
    {
      "constant": false,
      "inputs": [
        {
          "name": "_orderId",
          "type": "uint256"
        }
      ],
      "name": "transferOwnership",
      "outputs": [],
      "payable": false,
      "stateMutability": "nonpayable",
      "type": "function"
    },
    {
      "constant": false,
      "inputs": [],
      "name": "demo",
      "outputs": [],
      "payable": false,
      "stateMutability": "nonpayable",
      "type": "function"
    }
  ],
  "bytecode": "0x60806040527306f7469db8ebd77ab4dfbdbb0836f84701501a97601260006101000a81548173ffffffffffffffffffffffffffffffffffffffff021916908373ffffffffffffffffffffffffffffffffffffffff16021790555073fa2e3cbbdb6123b4cecdb113a8c11d9063292869601360006101000a81548173ffffffffffffffffffffffffffffffffffffffff021916908373ffffffffffffffffffffffffffffffffffffffff16021790555073255b70c41cf3b8885bcfd0969a46526dcf605f17601460006101000a81548173ffffffffffffffffffffffffffffffffffffffff021916908373ffffffffffffffffffffffffffffffffffffffff160217905550739fdebf94526158d8a5fc323e1713f190c4b1e7ba601560006101000a81548173ffffffffffffffffffffffffffffffffffffffff021916908373ffffffffffffffffffffffffffffffffffffffff1602179055507313182e9a4c93b63b1acf7a4c71a38ca6a1e6ba6c601660006101000a81548173ffffffffffffffffffffffffffffffffffffffff021916908373ffffffffffffffffffffffffffffffffffffffff160217905550348015620001ba57600080fd5b50620001d4620001da640100000000026401000000009004565b620010f7565b6200024e60006040805190810160405280600781526020017f6672657368667200000000000000000000000000000000000000000000000000815250601260009054906101000a900473ffffffffffffffffffffffffffffffffffffffff16620007a2640100000000026401000000009004565b620002c260016040805190810160405280600681526020017f537567756e610000000000000000000000000000000000000000000000000000815250601660009054906101000a900473ffffffffffffffffffffffffffffffffffffffff16620007a2640100000000026401000000009004565b6200033660026040805190810160405280600a81526020017f77617265686f7573653100000000000000000000000000000000000000000000815250601360009054906101000a900473ffffffffffffffffffffffffffffffffffffffff16620007a2640100000000026401000000009004565b620003aa60026040805190810160405280600a81526020017f77617265686f7573653200000000000000000000000000000000000000000000815250601460009054906101000a900473ffffffffffffffffffffffffffffffffffffffff16620007a2640100000000026401000000009004565b6200041e60026040805190810160405280600a81526020017f77617265686f7573653300000000000000000000000000000000000000000000815250601560009054906101000a900473ffffffffffffffffffffffffffffffffffffffff16620007a2640100000000026401000000009004565b620004956040805190810160405280600681526020017f636172726f7400000000000000000000000000000000000000000000000000008152506064601260009054906101000a900473ffffffffffffffffffffffffffffffffffffffff16600080620009ab640100000000026401000000009004565b620005076040805190810160405280600981526020017f74656c656e67616e610000000000000000000000000000000000000000000000815250601260009054906101000a900473ffffffffffffffffffffffffffffffffffffffff1662000b21640100000000026401000000009004565b620005796040805190810160405280600981526020017f6879646572616261640000000000000000000000000000000000000000000000815250601360009054906101000a900473ffffffffffffffffffffffffffffffffffffffff1662000b21640100000000026401000000009004565b620005eb6040805190810160405280600981526020017f62616e67616c6f72650000000000000000000000000000000000000000000000815250601460009054906101000a900473ffffffffffffffffffffffffffffffffffffffff1662000b21640100000000026401000000009004565b6200065d6040805190810160405280600581526020017f6b6f636869000000000000000000000000000000000000000000000000000000815250601560009054906101000a900473ffffffffffffffffffffffffffffffffffffffff1662000b21640100000000026401000000009004565b620006cf6040805190810160405280600881526020017f616c6170757a6861000000000000000000000000000000000000000000000000815250601660009054906101000a900473ffffffffffffffffffffffffffffffffffffffff1662000b21640100000000026401000000009004565b620007136001606460016002601260009054906101000a900473ffffffffffffffffffffffffffffffffffffffff1662000bf3640100000000026401000000009004565b620007a0600180600561014060405190810160405280600160ff168152602001600260ff168152602001600360ff168152602001600460ff168152602001600560ff168152602001600060ff168152602001600060ff168152602001600060ff168152602001600060ff168152602001600060ff1681525062000daf640100000000026401000000009004565b565b600d60008154809291906001019190505550608060405190810160405280848152602001600d5481526020018381526020018273ffffffffffffffffffffffffffffffffffffffff16815250600560008373ffffffffffffffffffffffffffffffffffffffff1673ffffffffffffffffffffffffffffffffffffffff168152602001908152602001600020600082015181600001556020820151816001015560408201518160020190805190602001906200085f92919062000ee6565b5060608201518160030160006101000a81548173ffffffffffffffffffffffffffffffffffffffff021916908373ffffffffffffffffffffffffffffffffffffffff160217905550905050600560008273ffffffffffffffffffffffffffffffffffffffff1673ffffffffffffffffffffffffffffffffffffffff16815260200190815260200160002060016000600d5481526020019081526020016000206000820154816000015560018201548160010155600282018160020190805460018160011615610100020316600290046200093b92919062000f6d565b506003820160009054906101000a900473ffffffffffffffffffffffffffffffffffffffff168160030160006101000a81548173ffffffffffffffffffffffffffffffffffffffff021916908373ffffffffffffffffffffffffffffffffffffffff160217905550905050505050565b600e6000815480929190600101919050555060a060405190810160405280600e548152602001868152602001858152602001600081526020016000815250600660008573ffffffffffffffffffffffffffffffffffffffff1673ffffffffffffffffffffffffffffffffffffffff16815260200190815260200160002060008201518160000155602082015181600101908051906020019062000a5092919062000ee6565b50604082015181600201556060820151816003015560808201518160040155905050600660008473ffffffffffffffffffffffffffffffffffffffff1673ffffffffffffffffffffffffffffffffffffffff168152602001908152602001600020600080600e548152602001908152602001600020600082015481600001556001820181600101908054600181600116156101000203166002900462000af892919062000f6d565b506002820154816002015560038201548160030155600482015481600401559050505050505050565b60106000815480929190600101919050555060606040519081016040528060105481526020018381526020018273ffffffffffffffffffffffffffffffffffffffff1681525060036000601054815260200190815260200160002060008201518160000155602082015181600101908051906020019062000ba492919062000ee6565b5060408201518160020160006101000a81548173ffffffffffffffffffffffffffffffffffffffff021916908373ffffffffffffffffffffffffffffffffffffffff1602179055509050505050565b600f6000815480929190600101919050555060a060405190810160405280600f54815260200186815260200185815260200184815260200183815250600760008373ffffffffffffffffffffffffffffffffffffffff1673ffffffffffffffffffffffffffffffffffffffff1681526020019081526020016000206000820151816000015560208201518160010155604082015181600201556060820151816003015560808201518160040155905050600760008273ffffffffffffffffffffffffffffffffffffffff1673ffffffffffffffffffffffffffffffffffffffff16815260200190815260200160002060026000600f5481526020019081526020016000206000820154816000015560018201548160010155600282015481600201556003820154816003015560048201548160040155905050600f54600c60008373ffffffffffffffffffffffffffffffffffffffff1673ffffffffffffffffffffffffffffffffffffffff168152602001908152602001600020819055508260096000600f5481526020019081526020016000208190555062000da8600f5462000ea3640100000000026401000000009004565b5050505050565b6000601160008154809291906001019190505550600290505b60008282600a8110151562000dd957fe5b602002015160ff1614151562000e28578181600a8110151562000df857fe5b602002015160ff16600a600060018403815260200190815260200160002081905550808060010191505062000dc8565b60806040519081016040528060115481526020018581526020018481526020018381525060046000601154815260200190815260200160002060008201518160000155602082015181600101556040820151816002015560608201518160030190600a62000e9892919062000ffb565b509050505050505050565b600a600060096000600f54815260200190815260200160002054815260200190815260200160002054600b60008381526020019081526020016000208190555050565b828054600181600116156101000203166002900490600052602060002090601f016020900481019282601f1062000f2957805160ff191683800117855562000f5a565b8280016001018555821562000f5a579182015b8281111562000f5957825182559160200191906001019062000f3c565b5b50905062000f6991906200109c565b5090565b828054600181600116156101000203166002900490600052602060002090601f016020900481019282601f1062000fa8578054855562000fe8565b8280016001018555821562000fe857600052602060002091601f016020900482015b8281111562000fe757825482559160010191906001019062000fca565b5b50905062000ff791906200109c565b5090565b82600a601f01602090048101928215620010895791602002820160005b838211156200105857835183826101000a81548160ff021916908360ff160217905550926020019260010160208160000104928301926001030262001018565b8015620010875782816101000a81549060ff021916905560010160208160000104928301926001030262001058565b505b509050620010989190620010c4565b5090565b620010c191905b80821115620010bd576000816000905550600101620010a3565b5090565b90565b620010f491905b80821115620010f057600081816101000a81549060ff021916905550600101620010cb565b5090565b90565b611e1180620011076000396000f300608060405260043610610112576000357c0100000000000000000000000000000000000000000000000000000000900463ffffffff16806301725a0b146101175780632453ffa81461012e578063248c486c14610159578063330f2943146101cc578063368a1b8e146101f75780635204789414610238578063540df5f8146102ab57806356ffbc20146102fa5780635ae317db146103f757806364efa242146104de5780636bfb0d01146105b6578063756831f2146105e15780638c821e90146106225780638f1ec88f1461064d57806392877ddc146106aa5780639e92e564146106eb578063a36701a914610716578063d23e8489146107d8578063d2ea2f3a14610805578063d81d9cdb1461085c575b600080fd5b34801561012357600080fd5b5061012c61093c565b005b34801561013a57600080fd5b50610143610e27565b6040518082815260200191505060405180910390f35b34801561016557600080fd5b5061019a600480360381019080803573ffffffffffffffffffffffffffffffffffffffff169060200190929190505050610e2d565b604051808681526020018581526020018481526020018381526020018281526020019550505050505060405180910390f35b3480156101d857600080fd5b506101e1610e63565b6040518082815260200191505060405180910390f35b34801561020357600080fd5b5061022260048036038101908080359060200190929190505050610e69565b6040518082815260200191505060405180910390f35b34801561024457600080fd5b50610279600480360381019080803573ffffffffffffffffffffffffffffffffffffffff169060200190929190505050610e81565b604051808681526020018581526020018481526020018381526020018281526020019550505050505060405180910390f35b3480156102b757600080fd5b506102d660048036038101908080359060200190929190505050610eb7565b60405180848152602001838152602001828152602001935050505060405180910390f35b34801561030657600080fd5b5061033b600480360381019080803573ffffffffffffffffffffffffffffffffffffffff169060200190929190505050610ee1565b60405180858152602001848152602001806020018373ffffffffffffffffffffffffffffffffffffffff1673ffffffffffffffffffffffffffffffffffffffff168152602001828103825284818151815260200191508051906020019080838360005b838110156103b957808201518184015260208101905061039e565b50505050905090810190601f1680156103e65780820380516001836020036101000a031916815260200191505b509550505050505060405180910390f35b34801561040357600080fd5b5061042260048036038101908080359060200190929190505050610fc9565b60405180858152602001848152602001806020018373ffffffffffffffffffffffffffffffffffffffff1673ffffffffffffffffffffffffffffffffffffffff168152602001828103825284818151815260200191508051906020019080838360005b838110156104a0578082015181840152602081019050610485565b50505050905090810190601f1680156104cd5780820380516001836020036101000a031916815260200191505b509550505050505060405180910390f35b3480156104ea57600080fd5b5061051f600480360381019080803573ffffffffffffffffffffffffffffffffffffffff1690602001909291905050506110b1565b6040518086815260200180602001858152602001848152602001838152602001828103825286818151815260200191508051906020019080838360005b8381101561057757808201518184015260208101905061055c565b50505050905090810190601f1680156105a45780820380516001836020036101000a031916815260200191505b50965050505050505060405180910390f35b3480156105c257600080fd5b506105cb61117f565b6040518082815260200191505060405180910390f35b3480156105ed57600080fd5b5061060c60048036038101908080359060200190929190505050611185565b6040518082815260200191505060405180910390f35b34801561062e57600080fd5b5061063761119d565b6040518082815260200191505060405180910390f35b34801561065957600080fd5b50610678600480360381019080803590602001909291905050506111a3565b604051808681526020018581526020018481526020018381526020018281526020019550505050505060405180910390f35b3480156106b657600080fd5b506106d5600480360381019080803590602001909291905050506111d9565b6040518082815260200191505060405180910390f35b3480156106f757600080fd5b506107006111f1565b6040518082815260200191505060405180910390f35b34801561072257600080fd5b50610741600480360381019080803590602001909291905050506111f7565b6040518086815260200180602001858152602001848152602001838152602001828103825286818151815260200191508051906020019080838360005b8381101561079957808201518184015260208101905061077e565b50505050905090810190601f1680156107c65780820380516001836020036101000a031916815260200191505b50965050505050505060405180910390f35b3480156107e457600080fd5b50610803600480360381019080803590602001909291905050506112c5565b005b34801561081157600080fd5b50610846600480360381019080803573ffffffffffffffffffffffffffffffffffffffff1690602001909291905050506113d2565b6040518082815260200191505060405180910390f35b34801561086857600080fd5b50610887600480360381019080803590602001909291905050506113ea565b60405180848152602001806020018373ffffffffffffffffffffffffffffffffffffffff1673ffffffffffffffffffffffffffffffffffffffff168152602001828103825284818151815260200191508051906020019080838360005b838110156108ff5780820151818401526020810190506108e4565b50505050905090810190601f16801561092c5780820380516001836020036101000a031916815260200191505b5094505050505060405180910390f35b61099f60006040805190810160405280600781526020017f6672657368667200000000000000000000000000000000000000000000000000815250601260009054906101000a900473ffffffffffffffffffffffffffffffffffffffff166114cc565b610a0260016040805190810160405280600681526020017f537567756e610000000000000000000000000000000000000000000000000000815250601660009054906101000a900473ffffffffffffffffffffffffffffffffffffffff166114cc565b610a6560026040805190810160405280600a81526020017f77617265686f7573653100000000000000000000000000000000000000000000815250601360009054906101000a900473ffffffffffffffffffffffffffffffffffffffff166114cc565b610ac860026040805190810160405280600a81526020017f77617265686f7573653200000000000000000000000000000000000000000000815250601460009054906101000a900473ffffffffffffffffffffffffffffffffffffffff166114cc565b610b2b60026040805190810160405280600a81526020017f77617265686f7573653300000000000000000000000000000000000000000000815250601560009054906101000a900473ffffffffffffffffffffffffffffffffffffffff166114cc565b610b916040805190810160405280600681526020017f636172726f7400000000000000000000000000000000000000000000000000008152506064601260009054906101000a900473ffffffffffffffffffffffffffffffffffffffff166000806116d1565b610bf26040805190810160405280600981526020017f74656c656e67616e610000000000000000000000000000000000000000000000815250601260009054906101000a900473ffffffffffffffffffffffffffffffffffffffff16611843565b610c536040805190810160405280600981526020017f6879646572616261640000000000000000000000000000000000000000000000815250601360009054906101000a900473ffffffffffffffffffffffffffffffffffffffff16611843565b610cb46040805190810160405280600981526020017f62616e67616c6f72650000000000000000000000000000000000000000000000815250601460009054906101000a900473ffffffffffffffffffffffffffffffffffffffff16611843565b610d156040805190810160405280600581526020017f6b6f636869000000000000000000000000000000000000000000000000000000815250601560009054906101000a900473ffffffffffffffffffffffffffffffffffffffff16611843565b610d766040805190810160405280600881526020017f616c6170757a6861000000000000000000000000000000000000000000000000815250601660009054906101000a900473ffffffffffffffffffffffffffffffffffffffff16611843565b610da96001606460016002601260009054906101000a900473ffffffffffffffffffffffffffffffffffffffff16611913565b610e25600180600561014060405190810160405280600160ff168152602001600260ff168152602001600360ff168152602001600460ff168152602001600560ff168152602001600060ff168152602001600060ff168152602001600060ff168152602001600060ff168152602001600060ff16815250611abe565b565b600f5481565b60086020528060005260406000206000915090508060000154908060010154908060020154908060030154908060040154905085565b60105481565b60096020528060005260406000206000915090505481565b60076020528060005260406000206000915090508060000154908060010154908060020154908060030154908060040154905085565b60046020528060005260406000206000915090508060000154908060010154908060020154905083565b6005602052806000526040600020600091509050806000015490806001015490806002018054600181600116156101000203166002900480601f016020809104026020016040519081016040528092919081815260200182805460018160011615610100020316600290048015610f995780601f10610f6e57610100808354040283529160200191610f99565b820191906000526020600020905b815481529060010190602001808311610f7c57829003601f168201915b5050505050908060030160009054906101000a900473ffffffffffffffffffffffffffffffffffffffff16905084565b6001602052806000526040600020600091509050806000015490806001015490806002018054600181600116156101000203166002900480601f0160208091040260200160405190810160405280929190818152602001828054600181600116156101000203166002900480156110815780601f1061105657610100808354040283529160200191611081565b820191906000526020600020905b81548152906001019060200180831161106457829003601f168201915b5050505050908060030160009054906101000a900473ffffffffffffffffffffffffffffffffffffffff16905084565b6006602052806000526040600020600091509050806000015490806001018054600181600116156101000203166002900480601f0160208091040260200160405190810160405280929190818152602001828054600181600116156101000203166002900480156111635780601f1061113857610100808354040283529160200191611163565b820191906000526020600020905b81548152906001019060200180831161114657829003601f168201915b5050505050908060020154908060030154908060040154905085565b600e5481565b600b6020528060005260406000206000915090505481565b60115481565b60026020528060005260406000206000915090508060000154908060010154908060020154908060030154908060040154905085565b600a6020528060005260406000206000915090505481565b600d5481565b6000602052806000526040600020600091509050806000015490806001018054600181600116156101000203166002900480601f0160208091040260200160405190810160405280929190818152602001828054600181600116156101000203166002900480156112a95780601f1061127e576101008083540402835291602001916112a9565b820191906000526020600020905b81548152906001019060200180831161128c57829003601f168201915b5050505050908060020154908060030154908060040154905085565b6000600b60008381526020019081526020016000205460096000848152602001908152602001600020819055506112fb82611bac565b60036000600960008581526020019081526020016000205481526020019081526020016000209050600c60003373ffffffffffffffffffffffffffffffffffffffff1673ffffffffffffffffffffffffffffffffffffffff1681526020019081526020016000206000905581600c60008360020160009054906101000a900473ffffffffffffffffffffffffffffffffffffffff1673ffffffffffffffffffffffffffffffffffffffff1673ffffffffffffffffffffffffffffffffffffffff168152602001908152602001600020819055505050565b600c6020528060005260406000206000915090505481565b6003602052806000526040600020600091509050806000015490806001018054600181600116156101000203166002900480601f01602080910402602001604051908101604052809291908181526020018280546001816001161561010002031660029004801561149c5780601f106114715761010080835404028352916020019161149c565b820191906000526020600020905b81548152906001019060200180831161147f57829003601f168201915b5050505050908060020160009054906101000a900473ffffffffffffffffffffffffffffffffffffffff16905083565b600d60008154809291906001019190505550608060405190810160405280848152602001600d5481526020018381526020018273ffffffffffffffffffffffffffffffffffffffff16815250600560008373ffffffffffffffffffffffffffffffffffffffff1673ffffffffffffffffffffffffffffffffffffffff16815260200190815260200160002060008201518160000155602082015181600101556040820151816002019080519060200190611587929190611bef565b5060608201518160030160006101000a81548173ffffffffffffffffffffffffffffffffffffffff021916908373ffffffffffffffffffffffffffffffffffffffff160217905550905050600560008273ffffffffffffffffffffffffffffffffffffffff1673ffffffffffffffffffffffffffffffffffffffff16815260200190815260200160002060016000600d548152602001908152602001600020600082015481600001556001820154816001015560028201816002019080546001816001161561010002031660029004611661929190611c6f565b506003820160009054906101000a900473ffffffffffffffffffffffffffffffffffffffff168160030160006101000a81548173ffffffffffffffffffffffffffffffffffffffff021916908373ffffffffffffffffffffffffffffffffffffffff160217905550905050505050565b600e6000815480929190600101919050555060a060405190810160405280600e548152602001868152602001858152602001600081526020016000815250600660008573ffffffffffffffffffffffffffffffffffffffff1673ffffffffffffffffffffffffffffffffffffffff168152602001908152602001600020600082015181600001556020820151816001019080519060200190611774929190611bef565b50604082015181600201556060820151816003015560808201518160040155905050600660008473ffffffffffffffffffffffffffffffffffffffff1673ffffffffffffffffffffffffffffffffffffffff168152602001908152602001600020600080600e548152602001908152602001600020600082015481600001556001820181600101908054600181600116156101000203166002900461181a929190611c6f565b506002820154816002015560038201548160030155600482015481600401559050505050505050565b60106000815480929190600101919050555060606040519081016040528060105481526020018381526020018273ffffffffffffffffffffffffffffffffffffffff168152506003600060105481526020019081526020016000206000820151816000015560208201518160010190805190602001906118c4929190611bef565b5060408201518160020160006101000a81548173ffffffffffffffffffffffffffffffffffffffff021916908373ffffffffffffffffffffffffffffffffffffffff1602179055509050505050565b600f6000815480929190600101919050555060a060405190810160405280600f54815260200186815260200185815260200184815260200183815250600760008373ffffffffffffffffffffffffffffffffffffffff1673ffffffffffffffffffffffffffffffffffffffff1681526020019081526020016000206000820151816000015560208201518160010155604082015181600201556060820151816003015560808201518160040155905050600760008273ffffffffffffffffffffffffffffffffffffffff1673ffffffffffffffffffffffffffffffffffffffff16815260200190815260200160002060026000600f5481526020019081526020016000206000820154816000015560018201548160010155600282015481600201556003820154816003015560048201548160040155905050600f54600c60008373ffffffffffffffffffffffffffffffffffffffff1673ffffffffffffffffffffffffffffffffffffffff168152602001908152602001600020819055508260096000600f54815260200190815260200160002081905550611ab7600f54611bac565b5050505050565b6000601160008154809291906001019190505550600290505b60008282600a81101515611ae757fe5b602002015160ff16141515611b33578181600a81101515611b0457fe5b602002015160ff16600a6000600184038152602001908152602001600020819055508080600101915050611ad7565b60806040519081016040528060115481526020018581526020018481526020018381525060046000601154815260200190815260200160002060008201518160000155602082015181600101556040820151816002015560608201518160030190600a611ba1929190611cf6565b509050505050505050565b600a600060096000600f54815260200190815260200160002054815260200190815260200160002054600b60008381526020019081526020016000208190555050565b828054600181600116156101000203166002900490600052602060002090601f016020900481019282601f10611c3057805160ff1916838001178555611c5e565b82800160010185558215611c5e579182015b82811115611c5d578251825591602001919060010190611c42565b5b509050611c6b9190611d90565b5090565b828054600181600116156101000203166002900490600052602060002090601f016020900481019282601f10611ca85780548555611ce5565b82800160010185558215611ce557600052602060002091601f016020900482015b82811115611ce4578254825591600101919060010190611cc9565b5b509050611cf29190611d90565b5090565b82600a601f01602090048101928215611d7f5791602002820160005b83821115611d5057835183826101000a81548160ff021916908360ff1602179055509260200192600101602081600001049283019260010302611d12565b8015611d7d5782816101000a81549060ff0219169055600101602081600001049283019260010302611d50565b505b509050611d8c9190611db5565b5090565b611db291905b80821115611dae576000816000905550600101611d96565b5090565b90565b611de291905b80821115611dde57600081816101000a81549060ff021916905550600101611dbb565b5090565b905600a165627a7a7230582046d8cefca5ef3725e4072a90b0c84f59317d62c77a9136980f5f61101e9f91570029",
  "source": "pragma solidity ^0.4.2;\n//Find the value of nextLocAddress which is the function to be achieved tomorrow\ncontract Production{\n    struct institution{\n        uint itype; //There are two types of institution - Institution and seller; Producer - 0, seller -1\n        uint id;\n        string name;\n        address accountOwner;\n    }\n    struct item{\n        uint id;\n        string name;\n        uint price;\n        uint min;\n        uint max;\n    }\n    struct order{\n        uint id;\n        uint itemId;\n        uint quantity;\n        uint srcId;\n        uint destId;\n        //uint[] pathF;\n    }\n    struct loc{\n        uint id;\n        string locName;\n        address locOwner;\n    }\n\n    struct path{\n        uint id;\n        uint src;\n        uint dest;\n        //size 10 array is described as the largest size\n        uint8[10] pathId;\n    }\n\n    mapping (uint => item) public idToItem;\n    mapping (uint => institution) public idToIns;\n    mapping (uint => order) public idToOrder;\n    mapping (uint => loc) public idToLoc;\n    mapping (uint => path) public idToPath;\n    //an address can have only one Institution associated with it\n    // mapping to corelate a owner to his institution\n\n    mapping (address => institution) public ownerToIns;\n    mapping (address => item) public insToItems;\n    mapping (address => order) public producerToOrder;\n    mapping (address => order) public sellerToOrder;\n    //int to address corelation to perform tracking\n    mapping (uint => uint) public currentlyWithId;\n    mapping (uint => uint) public nextId;\n    mapping (uint => uint) public nextLocId;\n    //mapping all the pending delivery to their address they should arrive at and also the status which is a bool\n    mapping (address => uint) public arrivedHere;\n    //counters to store the equvalent id's\n    uint public insCount;\n    uint public itemCount;\n    uint public orderCount;\n    uint public locCount;\n    uint public pathCount;\n    //This is a temporary address holder, as address assigned by ganache constantly changes\n    address tempAddress1 = 0x06F7469DB8eBd77AB4DfBdBb0836F84701501A97;\n    address tempAddress2 = 0xFa2E3cbbdB6123b4CecdB113a8C11d9063292869;\n    address tempAddress3 = 0x255b70c41cf3b8885BCFD0969A46526dcF605F17;\n    address tempAddress4 = 0x9FDEbF94526158d8A5FC323E1713F190c4B1E7BA;\n    address tempAddress5 = 0x13182E9a4c93B63B1ACf7A4C71a38ca6a1e6ba6c;\n    //procedures to add new struct instance\n    function addInstitute(uint _typeId, string _name, address tempAddress) private{\n        insCount++;\n        ownerToIns[tempAddress] = institution(_typeId,insCount,_name,tempAddress);\n        idToIns[insCount] = ownerToIns[tempAddress];\n    }\n\n\n    function addItem(string _name,uint price,address tempAddress,uint _min,uint _max) private{\n        itemCount++;\n        insToItems[tempAddress] =item(itemCount,_name,price,0,0);\n        idToItem[itemCount] = insToItems[tempAddress];\n\n    }\n\n    //Function to add order\n    function addOrder(uint _itemId,uint quantity,uint src,uint dest,address tempAddress) private{\n        orderCount++;\n        producerToOrder[tempAddress] = order(orderCount,_itemId,quantity,src,dest);\n        idToOrder[orderCount] = producerToOrder[tempAddress];\n        arrivedHere[tempAddress] = orderCount;\n        currentlyWithId[orderCount] = src;\n        findNext(orderCount);\n\n    }\n\n    //Function to add new location\n    function addLoc(string _locName,address tempAddress) private{\n        locCount++;\n\n        idToLoc[locCount] =loc(locCount,_locName,tempAddress);\n\n    }\n\n\n    function addPath(uint orderId,uint _srcId,uint _destId,uint8[10] _path) private{\n        pathCount++;\n        for(uint i=2;_path[i]!=0;i++){\n            nextId[i-1] =_path[i];\n        }\n        idToPath[pathCount] = path(pathCount,_srcId,_destId,_path);\n    }\n\n    function transferOwnership(uint _orderId) public{\n        currentlyWithId[_orderId] = nextLocId[_orderId];\n        findNext(_orderId);\n        loc location  = idToLoc[currentlyWithId[_orderId]];\n        delete arrivedHere[msg.sender];\n        arrivedHere[location.locOwner] = _orderId;\n    }\n    function findNext(uint orderId) private{\n        nextLocId[orderId] = nextId[currentlyWithId[orderCount]];\n\n    }\n\n    function demo(){\n        addInstitute(0,\"freshfr\",tempAddress1);\n        addInstitute(1,\"Suguna\",tempAddress5);\n        addInstitute(2,\"warehouse1\",tempAddress2);\n        addInstitute(2,\"warehouse2\",tempAddress3);\n        addInstitute(2,\"warehouse3\",tempAddress4);\n        addItem(\"carrot\",100,tempAddress1,0,0);\n        addLoc(\"telengana\",tempAddress1);\n        addLoc(\"hyderabad\",tempAddress2);\n        addLoc(\"bangalore\",tempAddress3);\n        addLoc(\"kochi\",tempAddress4);\n        addLoc(\"alapuzha\",tempAddress5);\n        addOrder(1,100,1,2,tempAddress1);\n        addPath(1,1,5,[1,2,3,4,5,0,0,0,0,0]);\n\n    }\n\n\n    constructor(){//This contracts constructor function\n        demo();\n\n    }\n\n\n}\n",
  "sourcePath": "/Users/krishnanunni/project/tcs/contracts/Production.sol",
  "compiler": {
    "name": "solc",
    "version": "0.4.24+commit.e67f0147.Emscripten.clang"
  },
  "schemaVersion": "2.0.1",
  "updatedAt": "2018-07-31T19:13:55.558Z"
}