{
  "contractName": "Production",
  "abi": [
    {
      "constant": true,
      "inputs": [
        {
          "name": "",
          "type": "address"
        }
      ],
      "name": "sellerToOrder",
      "outputs": [
        {
          "name": "id",
          "type": "uint256"
        },
        {
          "name": "itemId",
          "type": "uint256"
        },
        {
          "name": "quantity",
          "type": "uint256"
        }
      ],
      "payable": false,
      "stateMutability": "view",
      "type": "function"
    },
    {
      "constant": true,
      "inputs": [
        {
          "name": "",
          "type": "address"
        }
      ],
      "name": "producerToOrder",
      "outputs": [
        {
          "name": "id",
          "type": "uint256"
        },
        {
          "name": "itemId",
          "type": "uint256"
        },
        {
          "name": "quantity",
          "type": "uint256"
        }
      ],
      "payable": false,
      "stateMutability": "view",
      "type": "function"
    },
    {
      "constant": true,
      "inputs": [
        {
          "name": "",
          "type": "address"
        }
      ],
      "name": "ownerToIns",
      "outputs": [
        {
          "name": "itype",
          "type": "uint256"
        },
        {
          "name": "id",
          "type": "uint256"
        },
        {
          "name": "name",
          "type": "string"
        }
      ],
      "payable": false,
      "stateMutability": "view",
      "type": "function"
    },
    {
      "constant": true,
      "inputs": [
        {
          "name": "",
          "type": "uint256"
        }
      ],
      "name": "idToIns",
      "outputs": [
        {
          "name": "itype",
          "type": "uint256"
        },
        {
          "name": "id",
          "type": "uint256"
        },
        {
          "name": "name",
          "type": "string"
        }
      ],
      "payable": false,
      "stateMutability": "view",
      "type": "function"
    },
    {
      "constant": true,
      "inputs": [
        {
          "name": "",
          "type": "address"
        }
      ],
      "name": "insToItems",
      "outputs": [
        {
          "name": "id",
          "type": "uint256"
        },
        {
          "name": "name",
          "type": "string"
        },
        {
          "name": "price",
          "type": "uint256"
        }
      ],
      "payable": false,
      "stateMutability": "view",
      "type": "function"
    },
    {
      "constant": true,
      "inputs": [],
      "name": "itemCount",
      "outputs": [
        {
          "name": "",
          "type": "uint256"
        }
      ],
      "payable": false,
      "stateMutability": "view",
      "type": "function"
    },
    {
      "constant": true,
      "inputs": [
        {
          "name": "",
          "type": "uint256"
        }
      ],
      "name": "idToOrder",
      "outputs": [
        {
          "name": "id",
          "type": "uint256"
        },
        {
          "name": "itemId",
          "type": "uint256"
        },
        {
          "name": "quantity",
          "type": "uint256"
        }
      ],
      "payable": false,
      "stateMutability": "view",
      "type": "function"
    },
    {
      "constant": true,
      "inputs": [],
      "name": "insCount",
      "outputs": [
        {
          "name": "",
          "type": "uint256"
        }
      ],
      "payable": false,
      "stateMutability": "view",
      "type": "function"
    },
    {
      "constant": true,
      "inputs": [
        {
          "name": "",
          "type": "uint256"
        }
      ],
      "name": "idToItem",
      "outputs": [
        {
          "name": "id",
          "type": "uint256"
        },
        {
          "name": "name",
          "type": "string"
        },
        {
          "name": "price",
          "type": "uint256"
        }
      ],
      "payable": false,
      "stateMutability": "view",
      "type": "function"
    },
    {
      "inputs": [],
      "payable": false,
      "stateMutability": "nonpayable",
      "type": "constructor"
    }
  ],
  "bytecode": "0x60806040527306f7469db8ebd77ab4dfbdbb0836f84701501a97600960006101000a81548173ffffffffffffffffffffffffffffffffffffffff021916908373ffffffffffffffffffffffffffffffffffffffff1602179055503480156200006657600080fd5b50620000b66040805190810160405280601181526020017f537567756e6120566567657461626c657300000000000000000000000000000081525062000393640100000000026401000000009004565b606060405190810160405280600181526020016040805190810160405280600681526020017f636172726f7400000000000000000000000000000000000000000000000000008152508152602001606481525060016000600960009054906101000a900473ffffffffffffffffffffffffffffffffffffffff1673ffffffffffffffffffffffffffffffffffffffff1673ffffffffffffffffffffffffffffffffffffffff1681526020019081526020016000206000820151816000015560208201518160010190805190602001906200019292919062000513565b506040820151816002015590505060016000600960009054906101000a900473ffffffffffffffffffffffffffffffffffffffff1673ffffffffffffffffffffffffffffffffffffffff1673ffffffffffffffffffffffffffffffffffffffff16815260200190815260200160002060046000600181526020019081526020016000206000820154816000015560018201816001019080546001816001161561010002031660029004620002489291906200059a565b50600282015481600201559050506060604051908101604052806001815260200160018152602001606481525060026000600960009054906101000a900473ffffffffffffffffffffffffffffffffffffffff1673ffffffffffffffffffffffffffffffffffffffff1673ffffffffffffffffffffffffffffffffffffffff16815260200190815260200160002060008201518160000155602082015181600101556040820151816002015590505060026000600960009054906101000a900473ffffffffffffffffffffffffffffffffffffffff1673ffffffffffffffffffffffffffffffffffffffff1673ffffffffffffffffffffffffffffffffffffffff168152602001908152602001600020600660006001815260200190815260200160002060008201548160000155600182015481600101556002820154816002015590505062000650565b60076000815480929190600101919050555060606040519081016040528060008152602001600754815260200182815250600080600960009054906101000a900473ffffffffffffffffffffffffffffffffffffffff1673ffffffffffffffffffffffffffffffffffffffff1673ffffffffffffffffffffffffffffffffffffffff168152602001908152602001600020600082015181600001556020820151816001015560408201518160020190805190602001906200045692919062000513565b50905050600080600960009054906101000a900473ffffffffffffffffffffffffffffffffffffffff1673ffffffffffffffffffffffffffffffffffffffff1673ffffffffffffffffffffffffffffffffffffffff1681526020019081526020016000206005600060075481526020019081526020016000206000820154816000015560018201548160010155600282018160020190805460018160011615610100020316600290046200050c9291906200059a565b5090505050565b828054600181600116156101000203166002900490600052602060002090601f016020900481019282601f106200055657805160ff191683800117855562000587565b8280016001018555821562000587579182015b828111156200058657825182559160200191906001019062000569565b5b50905062000596919062000628565b5090565b828054600181600116156101000203166002900490600052602060002090601f016020900481019282601f10620005d5578054855562000615565b828001600101855582156200061557600052602060002091601f016020900482015b8281111562000614578254825591600101919060010190620005f7565b5b50905062000624919062000628565b5090565b6200064d91905b80821115620006495760008160009055506001016200062f565b5090565b90565b6108c780620006606000396000f300608060405260043610610099576000357c0100000000000000000000000000000000000000000000000000000000900463ffffffff168063248c486c1461009e578063520478941461010357806356ffbc20146101685780635ae317db1461023257806364efa242146102e65780636bfb0d01146103b05780638f1ec88f146103db5780639e92e5641461042a578063a36701a914610455575b600080fd5b3480156100aa57600080fd5b506100df600480360381019080803573ffffffffffffffffffffffffffffffffffffffff169060200190929190505050610509565b60405180848152602001838152602001828152602001935050505060405180910390f35b34801561010f57600080fd5b50610144600480360381019080803573ffffffffffffffffffffffffffffffffffffffff169060200190929190505050610533565b60405180848152602001838152602001828152602001935050505060405180910390f35b34801561017457600080fd5b506101a9600480360381019080803573ffffffffffffffffffffffffffffffffffffffff16906020019092919050505061055d565b6040518084815260200183815260200180602001828103825283818151815260200191508051906020019080838360005b838110156101f55780820151818401526020810190506101da565b50505050905090810190601f1680156102225780820380516001836020036101000a031916815260200191505b5094505050505060405180910390f35b34801561023e57600080fd5b5061025d6004803603810190808035906020019092919050505061061f565b6040518084815260200183815260200180602001828103825283818151815260200191508051906020019080838360005b838110156102a957808201518184015260208101905061028e565b50505050905090810190601f1680156102d65780820380516001836020036101000a031916815260200191505b5094505050505060405180910390f35b3480156102f257600080fd5b50610327600480360381019080803573ffffffffffffffffffffffffffffffffffffffff1690602001909291905050506106e1565b6040518084815260200180602001838152602001828103825284818151815260200191508051906020019080838360005b83811015610373578082015181840152602081019050610358565b50505050905090810190601f1680156103a05780820380516001836020036101000a031916815260200191505b5094505050505060405180910390f35b3480156103bc57600080fd5b506103c56107a3565b6040518082815260200191505060405180910390f35b3480156103e757600080fd5b50610406600480360381019080803590602001909291905050506107a9565b60405180848152602001838152602001828152602001935050505060405180910390f35b34801561043657600080fd5b5061043f6107d3565b6040518082815260200191505060405180910390f35b34801561046157600080fd5b50610480600480360381019080803590602001909291905050506107d9565b6040518084815260200180602001838152602001828103825284818151815260200191508051906020019080838360005b838110156104cc5780820151818401526020810190506104b1565b50505050905090810190601f1680156104f95780820380516001836020036101000a031916815260200191505b5094505050505060405180910390f35b60036020528060005260406000206000915090508060000154908060010154908060020154905083565b60026020528060005260406000206000915090508060000154908060010154908060020154905083565b6000602052806000526040600020600091509050806000015490806001015490806002018054600181600116156101000203166002900480601f0160208091040260200160405190810160405280929190818152602001828054600181600116156101000203166002900480156106155780601f106105ea57610100808354040283529160200191610615565b820191906000526020600020905b8154815290600101906020018083116105f857829003601f168201915b5050505050905083565b6005602052806000526040600020600091509050806000015490806001015490806002018054600181600116156101000203166002900480601f0160208091040260200160405190810160405280929190818152602001828054600181600116156101000203166002900480156106d75780601f106106ac576101008083540402835291602001916106d7565b820191906000526020600020905b8154815290600101906020018083116106ba57829003601f168201915b5050505050905083565b6001602052806000526040600020600091509050806000015490806001018054600181600116156101000203166002900480601f0160208091040260200160405190810160405280929190818152602001828054600181600116156101000203166002900480156107935780601f1061076857610100808354040283529160200191610793565b820191906000526020600020905b81548152906001019060200180831161077657829003601f168201915b5050505050908060020154905083565b60085481565b60066020528060005260406000206000915090508060000154908060010154908060020154905083565b60075481565b6004602052806000526040600020600091509050806000015490806001018054600181600116156101000203166002900480601f01602080910402602001604051908101604052809291908181526020018280546001816001161561010002031660029004801561088b5780601f106108605761010080835404028352916020019161088b565b820191906000526020600020905b81548152906001019060200180831161086e57829003601f168201915b50505050509080600201549050835600a165627a7a7230582096e2cb2d8c35dbd156fc555ce43a0598a9146d24ecfa61bc00017e7b76d70f1a0029",
  "source": "pragma solidity ^0.4.2;\n\ncontract Production{\n    struct institution{\n        uint itype; //There are two types of institution - Institution and seller; Producer - 0, seller -1\n        uint id;\n        string name;\n    }\n    struct item{\n        uint id;\n        string name;\n        uint price;\n    }\n    struct order{\n        uint id;\n        uint itemId;\n        uint quantity;\n    }\n    //an address can have only one Institution associated with it\n    mapping (address => institution) public ownerToIns; // mapping to corelate a owner to his institution\n    mapping (address => item) public insToItems;\n    mapping (address => order) public producerToOrder;\n    mapping (address => order) public sellerToOrder;\n    mapping (uint => item) public idToItem;\n    mapping (uint => institution) public idToIns;\n    mapping (uint => order) public idToOrder;\n    uint public insCount;\n    uint public itemCount;\n    address tempAddress = 0x06F7469DB8eBd77AB4DfBdBb0836F84701501A97; //This is a temporary address holder, as address assigned by ganache constantly changes\n    function addInstitute(string _name) private{ //procedure to add new Institution\n        insCount++; //No of Institutions incremented\n        ownerToIns[tempAddress] = institution(0,insCount,_name); // Institue and the owner is associated\n        idToIns[insCount] = ownerToIns[tempAddress];\n    }\n\n    constructor(){//This contracts constructor function\n        addInstitute(\"Suguna Vegetables\");\n        insToItems[tempAddress] =item(1,\"carrot\",100);\n        idToItem[1] = insToItems[tempAddress];\n        producerToOrder[tempAddress] = order(1,1,100);\n        idToOrder[1] = producerToOrder[tempAddress];\n    }\n\n}\n",
  "sourcePath": "/Users/krishnanunni/project/tcs/contracts/Production.sol",
  "compiler": {
    "name": "solc",
    "version": "0.4.24+commit.e67f0147.Emscripten.clang"
  },
  "schemaVersion": "2.0.1",
  "updatedAt": "2018-07-30T04:28:22.698Z"
}