{
  "contractName": "Production",
  "abi": [
    {
      "constant": true,
      "inputs": [
        {
          "name": "",
          "type": "address"
        }
      ],
      "name": "ownerToIns",
      "outputs": [
        {
          "name": "id",
          "type": "uint256"
        },
        {
          "name": "name",
          "type": "string"
        }
      ],
      "payable": false,
      "stateMutability": "view",
      "type": "function"
    },
    {
      "constant": true,
      "inputs": [],
      "name": "insCount",
      "outputs": [
        {
          "name": "",
          "type": "uint256"
        }
      ],
      "payable": false,
      "stateMutability": "view",
      "type": "function"
    },
    {
      "inputs": [],
      "payable": false,
      "stateMutability": "nonpayable",
      "type": "constructor"
    }
  ],
  "bytecode": "0x60806040527306f7469db8ebd77ab4dfbdbb0836f84701501a97600260006101000a81548173ffffffffffffffffffffffffffffffffffffffff021916908373ffffffffffffffffffffffffffffffffffffffff16021790555034801561006557600080fd5b506100b36040805190810160405280600d81526020017f566567657461626c6573202331000000000000000000000000000000000000008152506100b8640100000000026401000000009004565b610213565b6001600081548092919060010191905055506040805190810160405280600154815260200182815250600080600260009054906101000a900473ffffffffffffffffffffffffffffffffffffffff1673ffffffffffffffffffffffffffffffffffffffff1673ffffffffffffffffffffffffffffffffffffffff16815260200190815260200160002060008201518160000155602082015181600101908051906020019061016792919061016e565b5090505050565b828054600181600116156101000203166002900490600052602060002090601f016020900481019282601f106101af57805160ff19168380011785556101dd565b828001600101855582156101dd579182015b828111156101dc5782518255916020019190600101906101c1565b5b5090506101ea91906101ee565b5090565b61021091905b8082111561020c5760008160009055506001016101f4565b5090565b90565b61022d806102226000396000f30060806040526004361061004c576000357c0100000000000000000000000000000000000000000000000000000000900463ffffffff16806356ffbc20146100515780639e92e56414610114575b600080fd5b34801561005d57600080fd5b50610092600480360381019080803573ffffffffffffffffffffffffffffffffffffffff16906020019092919050505061013f565b6040518083815260200180602001828103825283818151815260200191508051906020019080838360005b838110156100d85780820151818401526020810190506100bd565b50505050905090810190601f1680156101055780820380516001836020036101000a031916815260200191505b50935050505060405180910390f35b34801561012057600080fd5b506101296101fb565b6040518082815260200191505060405180910390f35b6000602052806000526040600020600091509050806000015490806001018054600181600116156101000203166002900480601f0160208091040260200160405190810160405280929190818152602001828054600181600116156101000203166002900480156101f15780601f106101c6576101008083540402835291602001916101f1565b820191906000526020600020905b8154815290600101906020018083116101d457829003601f168201915b5050505050905082565b600154815600a165627a7a72305820cc7852f2c5702e3924e4c7ead24aba2756adfaf326e2e049d789bd32504434790029",
  "source": "pragma solidity ^0.4.2;\n\ncontract Production{\n    struct institution{\n        //uint type; //There are two types of institution - Institution and seller; Institution - 0, seller -1\n        uint id;\n        string name;\n    }\n    //an address can have only one Institution associated with it\n    mapping (address => institution) public ownerToIns; // mapping to corelate a owner to his institution\n    uint public insCount;\n    address tempAddress = 0x06F7469DB8eBd77AB4DfBdBb0836F84701501A97; //This is a temporary address holder, as address assigned by ganache constantly changes\n    function addInstitute(string _name) private{ //procedure to add new Institution\n        insCount++; //No of Institutions incremented\n        ownerToIns[tempAddress] = institution(insCount,_name); // Institue and the owner is associated\n\n    }\n    function Production(){//This contracts constructor function\n        addInstitute(\"Vegetables #1\");\n    }\n\n}\n",
  "sourcePath": "/Users/krishnanunni/project/tcs/contracts/Production.sol",
  "compiler": {
    "name": "solc",
    "version": "0.4.24+commit.e67f0147.Emscripten.clang"
  },
  "schemaVersion": "2.0.1",
  "updatedAt": "2018-07-29T04:15:41.724Z"
}