{
  "contractName": "Production",
  "abi": [
    {
      "constant": true,
      "inputs": [],
      "name": "orderCount",
      "outputs": [
        {
          "name": "",
          "type": "uint256"
        }
      ],
      "payable": false,
      "stateMutability": "view",
      "type": "function"
    },
    {
      "constant": true,
      "inputs": [
        {
          "name": "",
          "type": "address"
        }
      ],
      "name": "sellerToOrder",
      "outputs": [
        {
          "name": "id",
          "type": "uint256"
        },
        {
          "name": "itemId",
          "type": "uint256"
        },
        {
          "name": "quantity",
          "type": "uint256"
        },
        {
          "name": "srcId",
          "type": "uint256"
        },
        {
          "name": "destId",
          "type": "uint256"
        }
      ],
      "payable": false,
      "stateMutability": "view",
      "type": "function"
    },
    {
      "constant": true,
      "inputs": [],
      "name": "locCount",
      "outputs": [
        {
          "name": "",
          "type": "uint256"
        }
      ],
      "payable": false,
      "stateMutability": "view",
      "type": "function"
    },
    {
      "constant": true,
      "inputs": [
        {
          "name": "",
          "type": "uint256"
        }
      ],
      "name": "currentlyWithId",
      "outputs": [
        {
          "name": "",
          "type": "uint256"
        }
      ],
      "payable": false,
      "stateMutability": "view",
      "type": "function"
    },
    {
      "constant": true,
      "inputs": [
        {
          "name": "",
          "type": "address"
        }
      ],
      "name": "producerToOrder",
      "outputs": [
        {
          "name": "id",
          "type": "uint256"
        },
        {
          "name": "itemId",
          "type": "uint256"
        },
        {
          "name": "quantity",
          "type": "uint256"
        },
        {
          "name": "srcId",
          "type": "uint256"
        },
        {
          "name": "destId",
          "type": "uint256"
        }
      ],
      "payable": false,
      "stateMutability": "view",
      "type": "function"
    },
    {
      "constant": true,
      "inputs": [
        {
          "name": "",
          "type": "uint256"
        }
      ],
      "name": "idToPath",
      "outputs": [
        {
          "name": "id",
          "type": "uint256"
        },
        {
          "name": "src",
          "type": "uint256"
        },
        {
          "name": "dest",
          "type": "uint256"
        }
      ],
      "payable": false,
      "stateMutability": "view",
      "type": "function"
    },
    {
      "constant": true,
      "inputs": [
        {
          "name": "",
          "type": "address"
        }
      ],
      "name": "ownerToIns",
      "outputs": [
        {
          "name": "itype",
          "type": "uint256"
        },
        {
          "name": "id",
          "type": "uint256"
        },
        {
          "name": "name",
          "type": "string"
        },
        {
          "name": "accountOwner",
          "type": "address"
        }
      ],
      "payable": false,
      "stateMutability": "view",
      "type": "function"
    },
    {
      "constant": true,
      "inputs": [
        {
          "name": "",
          "type": "uint256"
        }
      ],
      "name": "idToIns",
      "outputs": [
        {
          "name": "itype",
          "type": "uint256"
        },
        {
          "name": "id",
          "type": "uint256"
        },
        {
          "name": "name",
          "type": "string"
        },
        {
          "name": "accountOwner",
          "type": "address"
        }
      ],
      "payable": false,
      "stateMutability": "view",
      "type": "function"
    },
    {
      "constant": true,
      "inputs": [
        {
          "name": "",
          "type": "address"
        }
      ],
      "name": "insToItems",
      "outputs": [
        {
          "name": "id",
          "type": "uint256"
        },
        {
          "name": "name",
          "type": "string"
        },
        {
          "name": "price",
          "type": "uint256"
        }
      ],
      "payable": false,
      "stateMutability": "view",
      "type": "function"
    },
    {
      "constant": true,
      "inputs": [],
      "name": "itemCount",
      "outputs": [
        {
          "name": "",
          "type": "uint256"
        }
      ],
      "payable": false,
      "stateMutability": "view",
      "type": "function"
    },
    {
      "constant": true,
      "inputs": [
        {
          "name": "",
          "type": "uint256"
        }
      ],
      "name": "nextLocId",
      "outputs": [
        {
          "name": "",
          "type": "uint256"
        }
      ],
      "payable": false,
      "stateMutability": "view",
      "type": "function"
    },
    {
      "constant": true,
      "inputs": [],
      "name": "pathCount",
      "outputs": [
        {
          "name": "",
          "type": "uint256"
        }
      ],
      "payable": false,
      "stateMutability": "view",
      "type": "function"
    },
    {
      "constant": true,
      "inputs": [
        {
          "name": "",
          "type": "uint256"
        }
      ],
      "name": "idToOrder",
      "outputs": [
        {
          "name": "id",
          "type": "uint256"
        },
        {
          "name": "itemId",
          "type": "uint256"
        },
        {
          "name": "quantity",
          "type": "uint256"
        },
        {
          "name": "srcId",
          "type": "uint256"
        },
        {
          "name": "destId",
          "type": "uint256"
        }
      ],
      "payable": false,
      "stateMutability": "view",
      "type": "function"
    },
    {
      "constant": true,
      "inputs": [
        {
          "name": "",
          "type": "uint256"
        }
      ],
      "name": "nextId",
      "outputs": [
        {
          "name": "",
          "type": "uint256"
        }
      ],
      "payable": false,
      "stateMutability": "view",
      "type": "function"
    },
    {
      "constant": true,
      "inputs": [],
      "name": "insCount",
      "outputs": [
        {
          "name": "",
          "type": "uint256"
        }
      ],
      "payable": false,
      "stateMutability": "view",
      "type": "function"
    },
    {
      "constant": true,
      "inputs": [
        {
          "name": "",
          "type": "uint256"
        }
      ],
      "name": "idToItem",
      "outputs": [
        {
          "name": "id",
          "type": "uint256"
        },
        {
          "name": "name",
          "type": "string"
        },
        {
          "name": "price",
          "type": "uint256"
        }
      ],
      "payable": false,
      "stateMutability": "view",
      "type": "function"
    },
    {
      "constant": true,
      "inputs": [
        {
          "name": "",
          "type": "uint256"
        }
      ],
      "name": "idToLoc",
      "outputs": [
        {
          "name": "id",
          "type": "uint256"
        },
        {
          "name": "locName",
          "type": "string"
        },
        {
          "name": "locOwner",
          "type": "address"
        }
      ],
      "payable": false,
      "stateMutability": "view",
      "type": "function"
    },
    {
      "inputs": [],
      "payable": false,
      "stateMutability": "nonpayable",
      "type": "constructor"
    },
    {
      "constant": false,
      "inputs": [],
      "name": "demo",
      "outputs": [],
      "payable": false,
      "stateMutability": "nonpayable",
      "type": "function"
    }
  ],
  "bytecode": "0x60806040527306f7469db8ebd77ab4dfbdbb0836f84701501a97601260006101000a81548173ffffffffffffffffffffffffffffffffffffffff021916908373ffffffffffffffffffffffffffffffffffffffff16021790555073fa2e3cbbdb6123b4cecdb113a8c11d9063292869601360006101000a81548173ffffffffffffffffffffffffffffffffffffffff021916908373ffffffffffffffffffffffffffffffffffffffff16021790555073255b70c41cf3b8885bcfd0969a46526dcf605f17601460006101000a81548173ffffffffffffffffffffffffffffffffffffffff021916908373ffffffffffffffffffffffffffffffffffffffff160217905550739fdebf94526158d8a5fc323e1713f190c4b1e7ba601560006101000a81548173ffffffffffffffffffffffffffffffffffffffff021916908373ffffffffffffffffffffffffffffffffffffffff1602179055507313182e9a4c93b63b1acf7a4c71a38ca6a1e6ba6c601660006101000a81548173ffffffffffffffffffffffffffffffffffffffff021916908373ffffffffffffffffffffffffffffffffffffffff160217905550348015620001ba57600080fd5b50620001d4620001da640100000000026401000000009004565b62001054565b6200024e60006040805190810160405280600781526020017f6672657368667200000000000000000000000000000000000000000000000000815250601260009054906101000a900473ffffffffffffffffffffffffffffffffffffffff166200079f640100000000026401000000009004565b620002c260016040805190810160405280600681526020017f537567756e610000000000000000000000000000000000000000000000000000815250601660009054906101000a900473ffffffffffffffffffffffffffffffffffffffff166200079f640100000000026401000000009004565b6200033660026040805190810160405280600a81526020017f77617265686f7573653100000000000000000000000000000000000000000000815250601360009054906101000a900473ffffffffffffffffffffffffffffffffffffffff166200079f640100000000026401000000009004565b620003aa60026040805190810160405280600a81526020017f77617265686f7573653200000000000000000000000000000000000000000000815250601460009054906101000a900473ffffffffffffffffffffffffffffffffffffffff166200079f640100000000026401000000009004565b6200041e60026040805190810160405280600a81526020017f77617265686f7573653300000000000000000000000000000000000000000000815250601560009054906101000a900473ffffffffffffffffffffffffffffffffffffffff166200079f640100000000026401000000009004565b620004926040805190810160405280600681526020017f636172726f7400000000000000000000000000000000000000000000000000008152506064601260009054906101000a900473ffffffffffffffffffffffffffffffffffffffff16620009a8640100000000026401000000009004565b620005046040805190810160405280600981526020017f74656c656e67616e610000000000000000000000000000000000000000000000815250601260009054906101000a900473ffffffffffffffffffffffffffffffffffffffff1662000ae6640100000000026401000000009004565b620005766040805190810160405280600981526020017f6879646572616261640000000000000000000000000000000000000000000000815250601360009054906101000a900473ffffffffffffffffffffffffffffffffffffffff1662000ae6640100000000026401000000009004565b620005e86040805190810160405280600981526020017f62616e67616c6f72650000000000000000000000000000000000000000000000815250601460009054906101000a900473ffffffffffffffffffffffffffffffffffffffff1662000ae6640100000000026401000000009004565b6200065a6040805190810160405280600581526020017f6b6f636869000000000000000000000000000000000000000000000000000000815250601560009054906101000a900473ffffffffffffffffffffffffffffffffffffffff1662000ae6640100000000026401000000009004565b620006cc6040805190810160405280600881526020017f616c6170757a6861000000000000000000000000000000000000000000000000815250601660009054906101000a900473ffffffffffffffffffffffffffffffffffffffff1662000ae6640100000000026401000000009004565b620007106001606460016002601260009054906101000a900473ffffffffffffffffffffffffffffffffffffffff1662000bb8640100000000026401000000009004565b6200079d600180600561014060405190810160405280600160ff168152602001600260ff168152602001600360ff168152602001600460ff168152602001600560ff168152602001600060ff168152602001600060ff168152602001600060ff168152602001600060ff168152602001600060ff1681525062000d74640100000000026401000000009004565b565b600d60008154809291906001019190505550608060405190810160405280848152602001600d5481526020018381526020018273ffffffffffffffffffffffffffffffffffffffff16815250600560008373ffffffffffffffffffffffffffffffffffffffff1673ffffffffffffffffffffffffffffffffffffffff168152602001908152602001600020600082015181600001556020820151816001015560408201518160020190805190602001906200085c92919062000e43565b5060608201518160030160006101000a81548173ffffffffffffffffffffffffffffffffffffffff021916908373ffffffffffffffffffffffffffffffffffffffff160217905550905050600560008273ffffffffffffffffffffffffffffffffffffffff1673ffffffffffffffffffffffffffffffffffffffff16815260200190815260200160002060016000600d5481526020019081526020016000206000820154816000015560018201548160010155600282018160020190805460018160011615610100020316600290046200093892919062000eca565b506003820160009054906101000a900473ffffffffffffffffffffffffffffffffffffffff168160030160006101000a81548173ffffffffffffffffffffffffffffffffffffffff021916908373ffffffffffffffffffffffffffffffffffffffff160217905550905050505050565b600e60008154809291906001019190505550606060405190810160405280600e54815260200184815260200183815250600660008373ffffffffffffffffffffffffffffffffffffffff1673ffffffffffffffffffffffffffffffffffffffff16815260200190815260200160002060008201518160000155602082015181600101908051906020019062000a3f92919062000e43565b5060408201518160020155905050600660008273ffffffffffffffffffffffffffffffffffffffff1673ffffffffffffffffffffffffffffffffffffffff168152602001908152602001600020600080600e548152602001908152602001600020600082015481600001556001820181600101908054600181600116156101000203166002900462000ad392919062000eca565b5060028201548160020155905050505050565b60106000815480929190600101919050555060606040519081016040528060105481526020018381526020018273ffffffffffffffffffffffffffffffffffffffff1681525060036000601054815260200190815260200160002060008201518160000155602082015181600101908051906020019062000b6992919062000e43565b5060408201518160020160006101000a81548173ffffffffffffffffffffffffffffffffffffffff021916908373ffffffffffffffffffffffffffffffffffffffff1602179055509050505050565b600f6000815480929190600101919050555060a060405190810160405280600f54815260200186815260200185815260200184815260200183815250600760008373ffffffffffffffffffffffffffffffffffffffff1673ffffffffffffffffffffffffffffffffffffffff1681526020019081526020016000206000820151816000015560208201518160010155604082015181600201556060820151816003015560808201518160040155905050600760008273ffffffffffffffffffffffffffffffffffffffff1673ffffffffffffffffffffffffffffffffffffffff16815260200190815260200160002060026000600f5481526020019081526020016000206000820154816000015560018201548160010155600282015481600201556003820154816003015560048201548160040155905050600f54600c60008373ffffffffffffffffffffffffffffffffffffffff1673ffffffffffffffffffffffffffffffffffffffff168152602001908152602001600020819055508260096000600f5481526020019081526020016000208190555062000d6d600f5462000e00640100000000026401000000009004565b5050505050565b60116000815480929190600101919050555060806040519081016040528060115481526020018481526020018381526020018281525060046000601154815260200190815260200160002060008201518160000155602082015181600101556040820151816002015560608201518160030190600a62000df692919062000f58565b5090505050505050565b600a600060096000600f54815260200190815260200160002054815260200190815260200160002054600b60008381526020019081526020016000208190555050565b828054600181600116156101000203166002900490600052602060002090601f016020900481019282601f1062000e8657805160ff191683800117855562000eb7565b8280016001018555821562000eb7579182015b8281111562000eb657825182559160200191906001019062000e99565b5b50905062000ec6919062000ff9565b5090565b828054600181600116156101000203166002900490600052602060002090601f016020900481019282601f1062000f05578054855562000f45565b8280016001018555821562000f4557600052602060002091601f016020900482015b8281111562000f4457825482559160010191906001019062000f27565b5b50905062000f54919062000ff9565b5090565b82600a601f0160209004810192821562000fe65791602002820160005b8382111562000fb557835183826101000a81548160ff021916908360ff160217905550926020019260010160208160000104928301926001030262000f75565b801562000fe45782816101000a81549060ff021916905560010160208160000104928301926001030262000fb5565b505b50905062000ff5919062001021565b5090565b6200101e91905b808211156200101a57600081600090555060010162001000565b5090565b90565b6200105191905b808211156200104d57600081816101000a81549060ff02191690555060010162001028565b5090565b90565b611b7f80620010646000396000f3006080604052600436106100fc576000357c0100000000000000000000000000000000000000000000000000000000900463ffffffff16806301725a0b146101015780632453ffa814610118578063248c486c14610143578063330f2943146101b6578063368a1b8e146101e15780635204789414610222578063540df5f81461029557806356ffbc20146102e45780635ae317db146103e157806364efa242146104c85780636bfb0d0114610592578063756831f2146105bd5780638c821e90146105fe5780638f1ec88f1461062957806392877ddc146106865780639e92e564146106c7578063a36701a9146106f2578063d81d9cdb146107a6575b600080fd5b34801561010d57600080fd5b50610116610886565b005b34801561012457600080fd5b5061012d610d6e565b6040518082815260200191505060405180910390f35b34801561014f57600080fd5b50610184600480360381019080803573ffffffffffffffffffffffffffffffffffffffff169060200190929190505050610d74565b604051808681526020018581526020018481526020018381526020018281526020019550505050505060405180910390f35b3480156101c257600080fd5b506101cb610daa565b6040518082815260200191505060405180910390f35b3480156101ed57600080fd5b5061020c60048036038101908080359060200190929190505050610db0565b6040518082815260200191505060405180910390f35b34801561022e57600080fd5b50610263600480360381019080803573ffffffffffffffffffffffffffffffffffffffff169060200190929190505050610dc8565b604051808681526020018581526020018481526020018381526020018281526020019550505050505060405180910390f35b3480156102a157600080fd5b506102c060048036038101908080359060200190929190505050610dfe565b60405180848152602001838152602001828152602001935050505060405180910390f35b3480156102f057600080fd5b50610325600480360381019080803573ffffffffffffffffffffffffffffffffffffffff169060200190929190505050610e28565b60405180858152602001848152602001806020018373ffffffffffffffffffffffffffffffffffffffff1673ffffffffffffffffffffffffffffffffffffffff168152602001828103825284818151815260200191508051906020019080838360005b838110156103a3578082015181840152602081019050610388565b50505050905090810190601f1680156103d05780820380516001836020036101000a031916815260200191505b509550505050505060405180910390f35b3480156103ed57600080fd5b5061040c60048036038101908080359060200190929190505050610f10565b60405180858152602001848152602001806020018373ffffffffffffffffffffffffffffffffffffffff1673ffffffffffffffffffffffffffffffffffffffff168152602001828103825284818151815260200191508051906020019080838360005b8381101561048a57808201518184015260208101905061046f565b50505050905090810190601f1680156104b75780820380516001836020036101000a031916815260200191505b509550505050505060405180910390f35b3480156104d457600080fd5b50610509600480360381019080803573ffffffffffffffffffffffffffffffffffffffff169060200190929190505050610ff8565b6040518084815260200180602001838152602001828103825284818151815260200191508051906020019080838360005b8381101561055557808201518184015260208101905061053a565b50505050905090810190601f1680156105825780820380516001836020036101000a031916815260200191505b5094505050505060405180910390f35b34801561059e57600080fd5b506105a76110ba565b6040518082815260200191505060405180910390f35b3480156105c957600080fd5b506105e8600480360381019080803590602001909291905050506110c0565b6040518082815260200191505060405180910390f35b34801561060a57600080fd5b506106136110d8565b6040518082815260200191505060405180910390f35b34801561063557600080fd5b50610654600480360381019080803590602001909291905050506110de565b604051808681526020018581526020018481526020018381526020018281526020019550505050505060405180910390f35b34801561069257600080fd5b506106b160048036038101908080359060200190929190505050611114565b6040518082815260200191505060405180910390f35b3480156106d357600080fd5b506106dc61112c565b6040518082815260200191505060405180910390f35b3480156106fe57600080fd5b5061071d60048036038101908080359060200190929190505050611132565b6040518084815260200180602001838152602001828103825284818151815260200191508051906020019080838360005b8381101561076957808201518184015260208101905061074e565b50505050905090810190601f1680156107965780820380516001836020036101000a031916815260200191505b5094505050505060405180910390f35b3480156107b257600080fd5b506107d1600480360381019080803590602001909291905050506111f4565b60405180848152602001806020018373ffffffffffffffffffffffffffffffffffffffff1673ffffffffffffffffffffffffffffffffffffffff168152602001828103825284818151815260200191508051906020019080838360005b8381101561084957808201518184015260208101905061082e565b50505050905090810190601f1680156108765780820380516001836020036101000a031916815260200191505b5094505050505060405180910390f35b6108e960006040805190810160405280600781526020017f6672657368667200000000000000000000000000000000000000000000000000815250601260009054906101000a900473ffffffffffffffffffffffffffffffffffffffff166112d6565b61094c60016040805190810160405280600681526020017f537567756e610000000000000000000000000000000000000000000000000000815250601660009054906101000a900473ffffffffffffffffffffffffffffffffffffffff166112d6565b6109af60026040805190810160405280600a81526020017f77617265686f7573653100000000000000000000000000000000000000000000815250601360009054906101000a900473ffffffffffffffffffffffffffffffffffffffff166112d6565b610a1260026040805190810160405280600a81526020017f77617265686f7573653200000000000000000000000000000000000000000000815250601460009054906101000a900473ffffffffffffffffffffffffffffffffffffffff166112d6565b610a7560026040805190810160405280600a81526020017f77617265686f7573653300000000000000000000000000000000000000000000815250601560009054906101000a900473ffffffffffffffffffffffffffffffffffffffff166112d6565b610ad86040805190810160405280600681526020017f636172726f7400000000000000000000000000000000000000000000000000008152506064601260009054906101000a900473ffffffffffffffffffffffffffffffffffffffff166114db565b610b396040805190810160405280600981526020017f74656c656e67616e610000000000000000000000000000000000000000000000815250601260009054906101000a900473ffffffffffffffffffffffffffffffffffffffff16611615565b610b9a6040805190810160405280600981526020017f6879646572616261640000000000000000000000000000000000000000000000815250601360009054906101000a900473ffffffffffffffffffffffffffffffffffffffff16611615565b610bfb6040805190810160405280600981526020017f62616e67616c6f72650000000000000000000000000000000000000000000000815250601460009054906101000a900473ffffffffffffffffffffffffffffffffffffffff16611615565b610c5c6040805190810160405280600581526020017f6b6f636869000000000000000000000000000000000000000000000000000000815250601560009054906101000a900473ffffffffffffffffffffffffffffffffffffffff16611615565b610cbd6040805190810160405280600881526020017f616c6170757a6861000000000000000000000000000000000000000000000000815250601660009054906101000a900473ffffffffffffffffffffffffffffffffffffffff16611615565b610cf06001606460016002601260009054906101000a900473ffffffffffffffffffffffffffffffffffffffff166116e5565b610d6c600180600561014060405190810160405280600160ff168152602001600260ff168152602001600360ff168152602001600460ff168152602001600560ff168152602001600060ff168152602001600060ff168152602001600060ff168152602001600060ff168152602001600060ff16815250611890565b565b600f5481565b60086020528060005260406000206000915090508060000154908060010154908060020154908060030154908060040154905085565b60105481565b60096020528060005260406000206000915090505481565b60076020528060005260406000206000915090508060000154908060010154908060020154908060030154908060040154905085565b60046020528060005260406000206000915090508060000154908060010154908060020154905083565b6005602052806000526040600020600091509050806000015490806001015490806002018054600181600116156101000203166002900480601f016020809104026020016040519081016040528092919081815260200182805460018160011615610100020316600290048015610ee05780601f10610eb557610100808354040283529160200191610ee0565b820191906000526020600020905b815481529060010190602001808311610ec357829003601f168201915b5050505050908060030160009054906101000a900473ffffffffffffffffffffffffffffffffffffffff16905084565b6001602052806000526040600020600091509050806000015490806001015490806002018054600181600116156101000203166002900480601f016020809104026020016040519081016040528092919081815260200182805460018160011615610100020316600290048015610fc85780601f10610f9d57610100808354040283529160200191610fc8565b820191906000526020600020905b815481529060010190602001808311610fab57829003601f168201915b5050505050908060030160009054906101000a900473ffffffffffffffffffffffffffffffffffffffff16905084565b6006602052806000526040600020600091509050806000015490806001018054600181600116156101000203166002900480601f0160208091040260200160405190810160405280929190818152602001828054600181600116156101000203166002900480156110aa5780601f1061107f576101008083540402835291602001916110aa565b820191906000526020600020905b81548152906001019060200180831161108d57829003601f168201915b5050505050908060020154905083565b600e5481565b600b6020528060005260406000206000915090505481565b60115481565b60026020528060005260406000206000915090508060000154908060010154908060020154908060030154908060040154905085565b600a6020528060005260406000206000915090505481565b600d5481565b6000602052806000526040600020600091509050806000015490806001018054600181600116156101000203166002900480601f0160208091040260200160405190810160405280929190818152602001828054600181600116156101000203166002900480156111e45780601f106111b9576101008083540402835291602001916111e4565b820191906000526020600020905b8154815290600101906020018083116111c757829003601f168201915b5050505050908060020154905083565b6003602052806000526040600020600091509050806000015490806001018054600181600116156101000203166002900480601f0160208091040260200160405190810160405280929190818152602001828054600181600116156101000203166002900480156112a65780601f1061127b576101008083540402835291602001916112a6565b820191906000526020600020905b81548152906001019060200180831161128957829003601f168201915b5050505050908060020160009054906101000a900473ffffffffffffffffffffffffffffffffffffffff16905083565b600d60008154809291906001019190505550608060405190810160405280848152602001600d5481526020018381526020018273ffffffffffffffffffffffffffffffffffffffff16815250600560008373ffffffffffffffffffffffffffffffffffffffff1673ffffffffffffffffffffffffffffffffffffffff1681526020019081526020016000206000820151816000015560208201518160010155604082015181600201908051906020019061139192919061195d565b5060608201518160030160006101000a81548173ffffffffffffffffffffffffffffffffffffffff021916908373ffffffffffffffffffffffffffffffffffffffff160217905550905050600560008273ffffffffffffffffffffffffffffffffffffffff1673ffffffffffffffffffffffffffffffffffffffff16815260200190815260200160002060016000600d54815260200190815260200160002060008201548160000155600182015481600101556002820181600201908054600181600116156101000203166002900461146b9291906119dd565b506003820160009054906101000a900473ffffffffffffffffffffffffffffffffffffffff168160030160006101000a81548173ffffffffffffffffffffffffffffffffffffffff021916908373ffffffffffffffffffffffffffffffffffffffff160217905550905050505050565b600e60008154809291906001019190505550606060405190810160405280600e54815260200184815260200183815250600660008373ffffffffffffffffffffffffffffffffffffffff1673ffffffffffffffffffffffffffffffffffffffff16815260200190815260200160002060008201518160000155602082015181600101908051906020019061157092919061195d565b5060408201518160020155905050600660008273ffffffffffffffffffffffffffffffffffffffff1673ffffffffffffffffffffffffffffffffffffffff168152602001908152602001600020600080600e54815260200190815260200160002060008201548160000155600182018160010190805460018160011615610100020316600290046116029291906119dd565b5060028201548160020155905050505050565b60106000815480929190600101919050555060606040519081016040528060105481526020018381526020018273ffffffffffffffffffffffffffffffffffffffff1681525060036000601054815260200190815260200160002060008201518160000155602082015181600101908051906020019061169692919061195d565b5060408201518160020160006101000a81548173ffffffffffffffffffffffffffffffffffffffff021916908373ffffffffffffffffffffffffffffffffffffffff1602179055509050505050565b600f6000815480929190600101919050555060a060405190810160405280600f54815260200186815260200185815260200184815260200183815250600760008373ffffffffffffffffffffffffffffffffffffffff1673ffffffffffffffffffffffffffffffffffffffff1681526020019081526020016000206000820151816000015560208201518160010155604082015181600201556060820151816003015560808201518160040155905050600760008273ffffffffffffffffffffffffffffffffffffffff1673ffffffffffffffffffffffffffffffffffffffff16815260200190815260200160002060026000600f5481526020019081526020016000206000820154816000015560018201548160010155600282015481600201556003820154816003015560048201548160040155905050600f54600c60008373ffffffffffffffffffffffffffffffffffffffff1673ffffffffffffffffffffffffffffffffffffffff168152602001908152602001600020819055508260096000600f54815260200190815260200160002081905550611889600f5461191a565b5050505050565b60116000815480929190600101919050555060806040519081016040528060115481526020018481526020018381526020018281525060046000601154815260200190815260200160002060008201518160000155602082015181600101556040820151816002015560608201518160030190600a611910929190611a64565b5090505050505050565b600a600060096000600f54815260200190815260200160002054815260200190815260200160002054600b60008381526020019081526020016000208190555050565b828054600181600116156101000203166002900490600052602060002090601f016020900481019282601f1061199e57805160ff19168380011785556119cc565b828001600101855582156119cc579182015b828111156119cb5782518255916020019190600101906119b0565b5b5090506119d99190611afe565b5090565b828054600181600116156101000203166002900490600052602060002090601f016020900481019282601f10611a165780548555611a53565b82800160010185558215611a5357600052602060002091601f016020900482015b82811115611a52578254825591600101919060010190611a37565b5b509050611a609190611afe565b5090565b82600a601f01602090048101928215611aed5791602002820160005b83821115611abe57835183826101000a81548160ff021916908360ff1602179055509260200192600101602081600001049283019260010302611a80565b8015611aeb5782816101000a81549060ff0219169055600101602081600001049283019260010302611abe565b505b509050611afa9190611b23565b5090565b611b2091905b80821115611b1c576000816000905550600101611b04565b5090565b90565b611b5091905b80821115611b4c57600081816101000a81549060ff021916905550600101611b29565b5090565b905600a165627a7a72305820fc33171d6dd830b8a7aa92f23f3a90a74fe0b22bb2b1554796e53091e68c26310029",
  "source": "pragma solidity ^0.4.2;\n//Find the value of nextLocAddress which is the function to be achieved tomorrow\ncontract Production{\n    struct institution{\n        uint itype; //There are two types of institution - Institution and seller; Producer - 0, seller -1\n        uint id;\n        string name;\n        address accountOwner;\n    }\n    struct item{\n        uint id;\n        string name;\n        uint price;\n    }\n    struct order{\n        uint id;\n        uint itemId;\n        uint quantity;\n        uint srcId;\n        uint destId;\n        //uint[] pathF;\n    }\n    struct loc{\n        uint id;\n        string locName;\n        address locOwner;\n    }\n\n    struct path{\n        uint id;\n        uint src;\n        uint dest;\n        //size 10 array is described as the largest size\n        uint8[10] pathId;\n    }\n\n    mapping (uint => item) public idToItem;\n    mapping (uint => institution) public idToIns;\n    mapping (uint => order) public idToOrder;\n    mapping (uint => loc) public idToLoc;\n    mapping (uint => path) public idToPath;\n    //an address can have only one Institution associated with it\n    // mapping to corelate a owner to his institution\n\n    mapping (address => institution) public ownerToIns;\n    mapping (address => item) public insToItems;\n    mapping (address => order) public producerToOrder;\n    mapping (address => order) public sellerToOrder;\n    //int to address corelation to perform tracking\n    mapping (uint => uint) public currentlyWithId;\n    mapping (uint => uint) public nextId;\n    mapping (uint => uint) public nextLocId;\n    //mapping all the pending delivery to their address they should arrive at and also the status which is a bool\n    mapping (address => uint) arrivedHere;\n    //counters to store the equvalent id's\n    uint public insCount;\n    uint public itemCount;\n    uint public orderCount;\n    uint public locCount;\n    uint public pathCount;\n    //This is a temporary address holder, as address assigned by ganache constantly changes\n    address tempAddress1 = 0x06F7469DB8eBd77AB4DfBdBb0836F84701501A97;\n    address tempAddress2 = 0xFa2E3cbbdB6123b4CecdB113a8C11d9063292869;\n    address tempAddress3 = 0x255b70c41cf3b8885BCFD0969A46526dcF605F17;\n    address tempAddress4 = 0x9FDEbF94526158d8A5FC323E1713F190c4B1E7BA;\n    address tempAddress5 = 0x13182E9a4c93B63B1ACf7A4C71a38ca6a1e6ba6c;\n    //procedures to add new struct instance\n    function addInstitute(uint _typeId, string _name, address tempAddress) private{\n        insCount++;\n        ownerToIns[tempAddress] = institution(_typeId,insCount,_name,tempAddress);\n        idToIns[insCount] = ownerToIns[tempAddress];\n    }\n\n\n    function addItem(string _name,uint price,address tempAddress) private{\n        itemCount++;\n        insToItems[tempAddress] =item(itemCount,_name,price);\n        idToItem[itemCount] = insToItems[tempAddress];\n\n    }\n\n\n    function addOrder(uint _itemId,uint quantity,uint src,uint dest,address tempAddress) private{\n        orderCount++;\n        producerToOrder[tempAddress] = order(orderCount,_itemId,quantity,src,dest);\n        idToOrder[orderCount] = producerToOrder[tempAddress];\n        arrivedHere[tempAddress] = orderCount;\n        currentlyWithId[orderCount] = src;\n        findNext(orderCount);\n\n    }\n\n\n    function addLoc(string _locName,address tempAddress) private{\n        locCount++;\n        idToLoc[locCount] =loc(locCount,_locName,tempAddress);\n\n    }\n\n\n    function addPath(uint orderId,uint _srcId,uint _destId,uint8[10] _path) private{\n        pathCount++;\n        idToPath[pathCount] = path(pathCount,_srcId,_destId,_path);\n\n\n    }\n    function findNext(uint orderId) private{\n        nextLocId[orderId] = nextId[currentlyWithId[orderCount]];\n\n\n    }\n\n    function demo(){\n        addInstitute(0,\"freshfr\",tempAddress1);\n        addInstitute(1,\"Suguna\",tempAddress5);\n        addInstitute(2,\"warehouse1\",tempAddress2);\n        addInstitute(2,\"warehouse2\",tempAddress3);\n        addInstitute(2,\"warehouse3\",tempAddress4);\n        addItem(\"carrot\",100,tempAddress1);\n        addLoc(\"telengana\",tempAddress1);\n        addLoc(\"hyderabad\",tempAddress2);\n        addLoc(\"bangalore\",tempAddress3);\n        addLoc(\"kochi\",tempAddress4);\n        addLoc(\"alapuzha\",tempAddress5);\n        addOrder(1,100,1,2,tempAddress1);\n        addPath(1,1,5,[1,2,3,4,5,0,0,0,0,0]);\n\n    }\n\n\n    constructor(){//This contracts constructor function\n        demo();\n\n    }\n\n\n}\n",
  "sourcePath": "/Users/krishnanunni/project/tcs/contracts/Production.sol",
  "compiler": {
    "name": "solc",
    "version": "0.4.24+commit.e67f0147.Emscripten.clang"
  },
  "schemaVersion": "2.0.1",
  "updatedAt": "2018-07-31T10:12:40.429Z"
}